:100000000C943A000C9457000C9457000C94570031
:100010000C9457000C9457000C9457000C94570004
:100020000C9457000C9457000C9457000C945700F4
:100030000C9457000C9457000C9457000C945700E4
:100040000C9457000C9457000C9457000C945700D4
:100050000C9457000C9457000C9457000C945700C4
:100060000C9457000C9457000C9457000C945700B4
:100070000C94570011241FBECFEFD4E0DEBFCDBFDC
:1000800011E0A0E0B1E0E6E7F1E102C005900D92D9
:10009000A437B107D9F721E0A4E7B1E001C01D9270
:1000A000AD38B207E1F70E94A7070C94B9080C9489
:1000B0000000E1E6F0E080E880831082A89584B734
:1000C000877F84BFE0E6F0E08081886180831082D2
:1000D0000895853098F4673088F421E030E001C05D
:1000E000220F6A95EAF7E82FF0E0EB58FE4F922FC7
:1000F0009095808189234111822B808308958530DA
:1001000080F4673070F421E030E001C0220F6A957E
:10011000EAF7E82FF0E0EB58FE4F8081282381E0DA
:1001200009F480E0089560917401E62FF0E0EB5847
:10013000FE4F80810E94E100809174018F5F8530C5
:1001400018F4809374010895109274010895E5E7FE
:10015000F1E01082118212821382148208950E94AB
:10016000BF000C94A7009C01FC01FF2784A1832BF6
:1001700084A395A1892F832B85A381E00895CF9334
:10018000DF93C4E5D1E0899199910E94B30081E0A9
:10019000C236D807C1F783E090E40E94B30080E044
:1001A00090E80E94B30083E090E10E94B30083E0F6
:1001B00090E80E94B30083E090E2DF91CF910C942D
:1001C000B300E0917A01F0E0EE0FFF1FE65BFE4F17
:1001D00020813181F901FF2795A1932B95A3E4E5B7
:1001E000F1E097E020813181D901BB2795962C91D0
:1001F000959780FF03C03095232301C0232B95964C
:100200002C938695915032969111ECCFE62FF0E029
:10021000EE0FFF1FE65BFE4F80819181FC01FF27FF
:1002200085A19095892385A360937A010895623012
:10023000710519F170F46130710559F5FC01FF2762
:1002400024A1392F3095922F932394A385A1832342
:100250001DC06330710541F064307105D1F4FC01BB
:10026000FF2784A1892B0FC0FC01FF2784A1892BC4
:1002700084A385A19095892309C0FC01FF2784A14F
:10028000292F2095822384A385A1892B85A381E032
:10029000089580E00895E82FF0E0EE0FFF1FE55885
:1002A000FE4F8081882321F0918181E0892702C05F
:1002B00080E090E081700895E82FF0E0EE0FFF1FDE
:1002C000E558FE4F8081811102C0818102C080E02B
:1002D00090E081700895E82FF0E0EE0FFF1FE558E1
:1002E000FE4F80810895E82FF0E0EE0FFF1FE558E4
:1002F000FE4F908181E0892708957F928F929F928F
:10030000AF92BF92CF92DF92EF92FF920F931F9323
:10031000CF93DF93CBE7D1E052E6C52E51E0D52E47
:1003200066E0762E88818983F601019111916F0133
:100330005801BB24F50124A1E12EFF2485A190E002
:100340008E219F2130E02E213F21232B31F0892B5C
:1003500051F433E0832E912C0DC0892B41F4882475
:100360008394912C07C094E0892E912C03C082E0E5
:10037000882E912C64E070E0C8010E94170162E0B1
:1003800070E0C8010E941701872D8A95F1F7F501E9
:1003900083A190E0E822F92281E0EF2809F080E0D3
:1003A0008883B401C8010E9417012296F1E0C53884
:1003B000DF0709F0B7CFDF91CF911F910F91FF9029
:1003C000EF90DF90CF90BF90AF909F908F907F90F5
:1003D00008950895CF93DF93EC010E9407069E01D4
:1003E00040E050E062E17AE780E090E00E94690836
:1003F0003093880120938701DF91CF9108958091F8
:100400008501909186010E94160620918501309108
:1004100086018091870190918801820F931F9093AC
:1004200086018093850108950C94FD060C941E07A7
:100430000C9403070C9409070C940F070E940F07F4
:100440000E9409078823E1F38CE291E00197F1F71C
:100450000E94FD0681110C94160208950C94250744
:10046000CF93DF9300D01F92CDB7DEB780916C01A0
:1004700090916D01A0916E0189839A83AB83509A0C
:10048000589A0E9493068FE690E00E942A0681E027
:1004900090E00E94820661E070E081E090E00E94BE
:1004A0006E060E945A06CE0101960E94E5060F9044
:1004B0000F900F90DF91CF910895692F0C947F00DA
:1004C00041E0611101C040E0692F0C9469000C9477
:1004D00060025F926F927F928F929F92AF92BF92D3
:1004E000CF92DF92EF92FF920F931F93CF93DF9300
:1004F000562E872E942E5C01E62EF72EC62F660F01
:10050000DD0BC81BD10987FDD395072F770F110B82
:10051000091B110997FD1395D7FF03C077247A941F
:1005200002C07724739417FF03C066246A9402C044
:1005300066246394D7FF03C0D195C195D10917FFF5
:1005400003C0119501951109C017D107A4F06E01E0
:10055000D594C794F92EA51411F1692D8A2D9F2DDC
:100560000E946002C01AD10AD7FE03C0CC0EDD1E65
:10057000F60CA70CF0CF6801D594C794E82EB814F8
:1005800071F0692D8E2D9B2D0E946002CC1ADD0A20
:10059000D7FE03C0C00ED11EE70CB60CF0CF692DFC
:1005A000C701DF91CF911F910F91FF90EF90DF90E6
:1005B000CF90BF90AF909F908F907F906F905F9003
:1005C0000C946002FF920F931F93CF93DF93D82F69
:1005D000F92E162FC72F042F792F0E946902402F62
:1005E0006D2F7C2F8D2F9F2D0E946902402F612F30
:1005F0007C2F812F9F2D0E946902402F612F7C2F1D
:100600008D2F9C2F0E946902DF91CF911F910F9136
:10061000FF9008950E94A700E0E0F1E0118A14869F
:100620000895DF92EF92FF920F931F93CF93DF9382
:10063000D82E7B01162F0F2D80910201909103017E
:10064000D0E0019799F50F2D0D1BE0910801F09175
:1006500009018181C0E0D817B8F480910801909118
:100660000901FC012281C21768F42C2F4D2F6D2D3A
:100670000E944607682F8E2D8C0F902F0E946002DB
:10068000CF5FEBCFDF5FDFCFE0910801F091090191
:100690008281C81740F460E08E2D8C0F902F0E944D
:1006A0006002CF5FF1CF015030C0DF5F1E2D1D0F04
:1006B000E0910801F09109018181C0E0D817A8F408
:1006C0008091080190910901FC012281C21768F70D
:1006D0002C2F4D2F6D2D0E944607682F812F9F2DA7
:1006E0009C0F0E946002CF5FEBCFE0910801F09178
:1006F00009018281C81740F460E0812F9F2D9C0F73
:100700000E946002CF5FF1CF1F5F812F902FDF919A
:10071000CF911F910F91FF90EF90DF9008950F936D
:100720001F93CF938C01C0E0F80181918F01882342
:1007300041F00E941103BC01CF5F853014F477FFB4
:10074000F3CF8C2FCF911F910F9108950F931F938B
:10075000CF93DF9310920C0140930D011092100182
:1007600000910801109109010115110509F449C012
:100770009B01EC01F80181816091060170910701F4
:1007800090E00E944408BC0180910A0190910B0105
:100790000E945508CB016AE070E00E9444089093E3
:1007A0000F0180930E01309305012093040140E274
:1007B00050E0BE0181E191E00E94AA088091000111
:1007C000909101010197E9F4FE0101900020E9F701
:1007D0003197BF016C1B7D0BF80181818F5F0E94F7
:1007E0003B088150209102013091030121303105F5
:1007F00011F095E001C097E0981718F48EEF809300
:100800001001DF91CF911F910F9108952091020166
:10081000309103012130310511F070E001C076E024
:100820004FEF60E00E94A603089590E090930701C7
:10083000809306010895909301018093000108952B
:10084000909303018093020108959093090180938E
:10085000080108958091890190918A0101969093F1
:100860008A018093890120910E0130910F01821736
:10087000930708F469C010928A0110928901E091EF
:100880000C01F0E0E050FF4F818981110AC0809196
:100890000D01823008F458C0815080930D011092F0
:1008A0000C0180910C0190E0FC01E050FF4F218988
:1008B000222309F449C04091000150910101209187
:1008C00010014115510521F04130510599F024C026
:1008D000211122C060910401709105018F5E9E4F2D
:1008E0000E948F0390E0019790910C01890F8093F3
:1008F0000C0112C060910401709105014091020148
:10090000509103014130510511F4720F01C0621B77
:100910008F5E9E4F0E948F03809110018F5F8093A6
:100920001001082E000C990BE0910801F0910901CB
:10093000218130E0281739073CF410921001809192
:100940000C018F5F80930C010C949300CF93DF9385
:10095000C0E0D1E09B878A870E94AF0084E190E0ED
:100960009F838E83DF91CF910C940A033F924F9225
:100970005F926F927F928F929F92AF92BF92CF922F
:10098000DF92EF92FF920F931F93CF93DF93CDB738
:10099000DEB7A3970FB6F894DEBF0FBECDBF5C01E4
:1009A000BE016F5F7F4F6B0183E2FB0111928A955D
:1009B000E9F74501F0E28F0E911C85014424439430
:1009C00086E0682E712C0E94FF010E947D010E942A
:1009D000CF0684E00E944B018823E9F0F80183816F
:1009E000882369F0F8018181282F30E02230310519
:1009F00024F08150F8018183F5CF13820CC0F801F7
:100A00008281282F30E02430310524F08150F80114
:100A10008283F5CF438280E00E944B01882331F02E
:100A2000F8018281882311F08150828382E00E9444
:100A30004B018823A9F0F8018381882319F0F08005
:100A4000FA9401C0F12CF8018281482F50E0930103
:100A50002F1931094217530724F48F5F828301C095
:100A6000F12C81E00E944B01882399F0F8018381E9
:100A7000811102C0F080FA94F8018181482F50E082
:100A800024E030E02F1931094217530714F48F5F27
:100A9000818383E00E944B01882331F0F80181813A
:100AA000882311F08150818380E00E949F06882373
:100AB00009F460C0F801A381408120E030E0B1E09A
:100AC000AA2361F1241760F5F8018181F28090E09A
:100AD00067E070E00E9444088C0D9D1DFC01E20F50
:100AE000F31FEF0DF11D80818111B0E02F5F3F4FAB
:100AF000E9CFF8018181F280B901680F711DCB0146
:100B000067E070E00E9444088C0D9D1DFC01EF0D14
:100B1000F11D80818111B0E02F5F3F4F241748F312
:100B2000BB2341F120E030E0241708F5F801818172
:100B3000B281AA2359F090E067E070E00E94440877
:100B40008C0D9D1DFC01E20FF31F0BC0B901680F56
:100B5000711DCB0167E070E00E9444088C0D9D1D63
:100B6000FC01EB0FF11D40822F5F3F4FDDCF33249F
:100B7000339401C0312C0E94A7007501F7018381D5
:100B8000512C8823A1F0F7018081581648F4F70111
:100B90006281650D41E081810E9469005394F3CF29
:100BA000F8E0EF0EF11CE814F90441F70DC0F7016D
:100BB00080815816A8F7F701818141E06281850D97
:100BC0000E9469005394F3CF0E949300332009F4EC
:100BD000FACE085F1F4FE016F10609F0F4CEA39697
:100BE0000FB6F894DEBF0FBECDBFDF91CF911F913E
:100BF0000F91FF90EF90DF90CF90BF90AF909F90BC
:100C00008F907F906F905F904F903F9008951092DB
:100C1000800084E08093810010928500109284000F
:100C2000089580918400909185000895AC01809191
:100C30008400909185009C01241B350B283E334095
:100C4000B0F708952091840030918500820F931FA2
:100C50000C941606CF93DF931F92CDB7DEB79E019B
:100C60002F5F3F4F45E06FE671E00E947E0791E005
:100C7000980F909331019981915097BD18BC95B50B
:100C8000977039F095B5209131012770987F922B9C
:100C900095BD298130E0E82FF0E0E159FE4FC90110
:100CA000008002C0880F991F0A94E2F70F90DF912D
:100CB000CF91089585B3897F85BB85B5909131012A
:100CC0009770887F892B85BD089585B5887F85BD00
:100CD000089585B382FB882780F90895009719F05D
:100CE000019741F0089584B58F736295660F660F82
:100CF000607C05C084B563706295607F8F7C682BD3
:100D000064BD0895009741F0019759F484B58E7F32
:100D100084BD84B5826002C084B58C7F84BD81E0CF
:100D2000089580E0089514BC15BC16BC18BC84B5A9
:100D30008E7F84BD84B5826084BD81E00895811179
:100D40000DC080918B01882329F090918C0181E066
:100D5000892702C080E090E08170089580E00895C6
:100D600081110BC080918B01811103C080918C0196
:100D700002C080E090E08170089580E008958111C4
:100D800003C080918B01089580E00895811105C012
:100D900090918B0181E08927089580E00895EBE828
:100DA000F1E08081818389B1881F8827881F808333
:100DB000089557985F9808959C0121503109309308
:100DC000CD0081508093CC000895CF93DF93EC0148
:100DD000888199810E94DC068A819BEF980F94306C
:100DE00008F088E098E19093C9008550880F8093BF
:100DF000CA0081E0DF91CF9108958091C800881FDB
:100E00008827881F08958091C80085FB882780F96E
:100E100008958091C80086FB882780F90895CF93B4
:100E2000C82F0E9403078823E1F38091C8008064E3
:100E30008093C800C093CE00CF9108958091C800E0
:100E400087FFFCCF8091CE000895CF93DF93EC0114
:100E50008991882319F00E940F07FACFDF91CF9173
:100E60000895009789F0FC012381621B67FD09C08A
:100E7000062E000C770B248130E081E062177307A7
:100E80000CF080E08170089580E00895CF93DF93A7
:100E9000FC01892B79F18181481760F5928129172E
:100EA00048F59381A62FA91BA7FD24C00A2E000C8C
:100EB000BB0BC481D0E0AC17BD07E4F4622F0E94E5
:100EC0003B08480F858190E0BD010E9444080696CA
:100ED000242F269526952695E80FF91FE20FF11D80
:100EE000808190E0477002C0959587954A95E2F71A
:100EF000817001C080E0DF91CF910895CF93DF939F
:100F0000DC01FB0160E070E080E0C1E0D0E084172C
:100F1000C9F09191BE01092E02C0660F771F0A9495
:100F2000E2F76F5F7F4F769567956A0F7B1F02C070
:100F3000769567959A95E2F76F3F710519F010F075
:100F40008F5FE5CFF9016083DF91CF910895CF9353
:100F5000DF93CDB7DEB7C054D1090FB6F894DEBF2A
:100F60000FBECDBF0E94AF0084EF91E00E94EA0166
:100F70000E9459000E94E9010E94D90688E0E2E33C
:100F8000F1E0DE01D99601900D928A95E1F788E0B3
:100F9000EAE3F1E0DE01D19601900D928A95E1F746
:100FA00088E0EAE3F1E0DE01999601900D928A95DE
:100FB000E1F788E0E2E4F1E0DE01919601900D9224
:100FC0008A95E1F788E0FE01F996DE01119601901D
:100FD0000D928A95E1F788E0FE01F196DE011996FF
:100FE00001900D928A95E1F788E0FE01B996DE0145
:100FF000519601900D928A95E1F788E0FE01B19635
:10100000DE01599601900D928A95E1F7CE01019685
:101010000E94B6040E94A7008E010F5F1F4F6E0151
:1010200081E2C80ED11CF8018381F12C882399F04C
:10103000F8018081F81648F4F80162816F0D41E0F3
:1010400081810E946900F394F3CF085F1F4F0C1554
:101050001D0549F70DC0F8018081F816B0F7F801B9
:10106000818141E062818F0D0E946900F394F3CF8A
:101070000E949300FDCF002480FD060E660F11F044
:101080008695D1F7802D08950024552704C0080EB9
:10109000591F880F991F009729F076956795B8F327
:1010A0007105B9F7802D952F0895AA1BBB1B51E13F
:1010B00007C0AA1FBB1FA617B70710F0A61BB70BC8
:1010C000881F991F5A95A9F780959095BC01CD016D
:1010D0000895052E97FB1EF400940E94800857FD8A
:1010E00007D00E94880807FC03D04EF40C948008B7
:1010F00050954095309521953F4F4F4F5F4F089544
:1011000090958095709561957F4F8F4F9F4F089573
:10111000A1E21A2EAA1BBB1BFD010DC0AA1FBB1FFB
:10112000EE1FFF1FA217B307E407F50720F0A21B6D
:10113000B30BE40BF50B661F771F881F991F1A94DA
:1011400069F760957095809590959B01AC01BD0104
:10115000CF010895FB01DC014150504048F001905F
:101160000D920020C9F701C01D9241505040E0F798
:061170000895F894FFCF82
:101176000000000000001400000000000000000055
:101186000000000000000000000000000000000059
:101196000000000000000000000000000000000049
:1011A600000104000001000000000300000100002F
:1011B6000000020000010000000003400080031050
:1011C60003800320004000200010000800040002F5
:1011D600000103800340032000800310D0000800B4
:0411E6000306080AEA
:00000001FF
