:100000000C943A000C9457000C9457000C94570031
:100010000C9457000C9457000C9457000C94570004
:100020000C9457000C9457000C9457000C945700F4
:100030000C9457000C9457000C9457000C945700E4
:100040000C9457000C9457000C9457000C945700D4
:100050000C9457000C9457000C9457000C945700C4
:100060000C9457000C9457000C9457000C945700B4
:100070000C94570011241FBECFEFD4E0DEBFCDBFDC
:1000800013E0A0E0B1E0EAE8FAE102C005900D92C9
:10009000A236B107D9F723E0A2E6B3E001C01D9272
:1000A000AF37B207E1F70E94620A0C94430D0C943B
:1000B00000000E94D60084EF91E00E948F030E940E
:1000C00080000E948E030E9498080E946A090E9484
:1000D000E2000E94D50384EF91E00E944B0688E382
:1000E00091E00E94CA0589E10E94BA0581E090E092
:1000F0000E94C00560E080E00E94DA000C94CE000F
:10010000E1E6F0E080E880831082A89584B7877FDD
:1001100084BFE0E6F0E080818861808310820895EA
:10012000853098F4673088F421E030E001C0220F78
:100130006A95EAF7E82FF0E0ED59FC4F922F909581
:10014000808189234111822B80830895853080F43A
:10015000673070F421E030E001C0220F6A95EAF7C1
:10016000E82FF0E0ED59FC4F8081282381E009F46D
:1001700080E0089560916203E62FF0E0ED59FC4FB6
:1001800080810E948602809162038F5F853018F41F
:10019000809362030895109262030895E3E6F3E00A
:1001A0001082118212821382148208950E946402C6
:1001B0000C94CE00811105C0662311F0429A089577
:1001C000429808953A9A429A089560E080E00E9429
:1001D000DA0089E193E00E94AB050E9422030E94AD
:1001E000A4030E9460090E94CF0584E00E94F002EF
:1001F000882399F30E94CE000C94BA00CF93DF932A
:1002000061E070E083E290E00E94F50BEC018EE08B
:1002100090E00E940C0CFC0120E030E0AE01420FA7
:10022000531F419351932B5F3F4F23323105B1F759
:10023000DF91CF910895CF93DF93EC0180E00E948E
:10024000F002882329F08A81882311F081508A8363
:1002500082E00E94F0028823A1F08A819881282FF1
:1002600030E0290F311D2730310524F49B8199237B
:1002700059F105C0863028F49B81911102C08F5F2F
:100280008A8381E00E94F002882399F0898184307A
:1002900018F49B8191110BC09881282F30E0290F11
:1002A000311D253031052CF49B81911102C08F5FE7
:1002B000898383E00E94F002882349F089818823A2
:1002C00031F08150898303C08630C8F2DACFDF91E4
:1002D000CF910895CF93DF93EC0184E00E94F00268
:1002E000882361F08B81882349F02981888190E0FF
:1002F000820F911D069714F41B8211C084E00E94A6
:10030000F002882361F08B81811109C02A818881E4
:1003100090E0820F911D089714F481E08B83DF91A8
:10032000CF9108950F931F93CF93DF93EC018B012F
:1003300080E00E943009982F882379F1488120E0DD
:1003400030E0241740F58B81EA815981882389F0B8
:10035000B9016E0F711DFB01EE0FFF1FE00FF11FC2
:100360000190F081E02DE50FF11D8081813081F455
:1003700016C0F0E0EE0FFF1FE00FF11F0190F081BB
:10038000E02DE20FF31FE50FF11D5081513041F0D8
:100390002F5F3F4FD6CF892F03C081E001C080E09F
:1003A000DF91CF911F910F910895EF92FF920F93DC
:1003B0001F93CF93DF937C018B01EA01BA010E9466
:1003C00092018823C9F180E00E9430098823A1F1BD
:1003D00020E031E0D7018C91281750F5D701139612
:1003E0004C9113971296EC911297822F90E01196F0
:1003F0006C91442371F0AC014E0F511DFA01EE0FC8
:10040000FF1FEC0FFD1F0190F081E02DE60FF11DA5
:100410000CC0F0E0EE0FFF1FEC0FFD1F408151817B
:10042000460F511DFA01E80FF91F30832F5FD2CF1D
:10043000F80180818F5F8083DF91CF911F910F91B1
:10044000FF90EF9008950E94BA000C94CE00EF92B6
:10045000FF920F931F93CF93DF93EC018B017A01EF
:100460000E941B01CE010E946A01A701B801CE01C2
:100470000E94D5010E9422030E946009CE010E94C1
:100480005B060E94BA000E94CE00F8018081843091
:1004900041F4DF91CF911F910F91FF90EF900C9459
:1004A0002302DF91CF911F910F91FF90EF9008955C
:1004B0009C01FC01FF2784A1832B84A395A1892F94
:1004C000832B85A381E00895CF93DF93CAE3D3E024
:1004D000899199910E94580283E0C834D807C1F7E6
:1004E00083E090E40E94580280E090E80E94580265
:1004F00083E090E10E94580283E090E80E94580255
:1005000083E090E2DF91CF910C945802E091680370
:10051000F0E0EE0FFF1FE05DFC4F20813181F9011B
:10052000FF2795A1932B95A3EAE3F3E097E02081C1
:100530003181D901BB2795962C91959780FF03C0F7
:100540003095232301C0232B95962C9386959150AB
:1005500032969111ECCFE62FF0E0EE0FFF1FE05D39
:10056000FC4F80819181FC01FF2785A19095892313
:1005700085A36093680308956230710519F170F4E2
:100580006130710559F5FC01FF2724A1392F309501
:10059000922F932394A385A183231DC063307105FB
:1005A00041F064307105D1F4FC01FF2784A1892B4F
:1005B0000FC0FC01FF2784A1892B84A385A19095FE
:1005C000892309C0FC01FF2784A1292F20958223BC
:1005D00084A385A1892B85A381E0089580E00895F7
:1005E000E82FF0E0EE0FFF1FE759FC4F80818823D2
:1005F00021F0918181E0892702C080E090E0817044
:100600000895E82FF0E0EE0FFF1FE759FC4F8081BF
:10061000811102C0818102C080E090E08170089564
:10062000E82FF0E0EE0FFF1FE759FC4F808108959F
:10063000E82FF0E0EE0FFF1FE759FC4F908181E0BB
:10064000892708957F928F929F92AF92BF92CF9207
:10065000DF92EF92FF920F931F93CF93DF93C9E640
:10066000D3E058E4C52E53E0D52E66E0762E88817F
:100670008983F601019111916F015801BB24F501A5
:1006800024A1E12EFF2485A190E08E219F2130E05E
:100690002E213F21232B31F0892B51F433E0832E7F
:1006A000912C0DC0892B41F488248394912C07C090
:1006B00094E0892E912C03C082E0882E912C64E076
:1006C00070E0C8010E94BC0262E070E0C8010E94B4
:1006D000BC02872D8A95F1F7F50183A190E0E8220D
:1006E000F92281E0EF2809F080E08883B401C80195
:1006F0000E94BC022296F3E0C337DF0709F0B7CFB0
:10070000DF91CF911F910F91FF90EF90DF90CF90ED
:10071000BF90AF909F908F907F9008950895CF9352
:10072000DF93EC010E9498089E0140E050E062E1F6
:100730007AE780E090E00E949F0B3093760320934D
:100740007503DF91CF9108958091730390917403A5
:100750000E94A70820917303309174038091750360
:1007600090917603820F931F909374038093730389
:1007700008950C948E090C94AF090C9494090C9470
:100780009A090C94A0090E94A0090E949A09882342
:10079000E1F38CE291E00197F1F70E948E0981115B
:1007A0000C94BB0308950C94B609CF93DF9300D04B
:1007B0001F92CDB7DEB78091520390915303A09161
:1007C000540389839A83AB83509A589A0E942409D0
:1007D0008FE690E00E94BB0881E090E00E94130940
:1007E00061E070E081E090E00E94FF080E94EB0869
:1007F000CE0101960E9476090F900F900F90DF9125
:10080000CF910895692F0C94A60041E0611101C0B9
:1008100040E0692F0C9490000C9405045F926F9255
:100820007F928F929F92AF92BF92CF92DF92EF9280
:10083000FF920F931F93CF93DF93562E872E942E04
:100840005C01E62EF72EC62F660FDD0BC81BD10903
:1008500087FDD395072F770F110B091B110997FD02
:100860001395D7FF03C077247A9402C0772473943A
:1008700017FF03C066246A9402C066246394D7FFFE
:1008800003C0D195C195D10917FF03C011950195FA
:100890001109C017D107A4F06E01D594C794F92EA1
:1008A000A51411F1692D8A2D9F2D0E940504C01AEF
:1008B000D10AD7FE03C0CC0EDD1EF60CA70CF0CF7C
:1008C0006801D594C794E82EB81471F0692D8E2D67
:1008D0009B2D0E940504CC1ADD0AD7FE03C0C00E72
:1008E000D11EE70CB60CF0CF692DC701DF91CF9177
:1008F0001F910F91FF90EF90DF90CF90BF90AF903E
:100900009F908F907F906F905F900C940504FF9262
:100910000F931F93CF93DF93D82FF92E162FC72F46
:10092000042F792F0E940E04402F6D2F7C2F8D2FC6
:100930009F2D0E940E04402F612F7C2F812F9F2D11
:100940000E940E04402F612F7C2F8D2F9C2F0E9420
:100950000E04DF91CF911F910F91FF9008950E9497
:10096000CE00E0E0F1E0118A14860895DF92EF9264
:10097000FF920F931F93CF93DF93D82E7B01162FF7
:100980000F2D8091020190910301D0E0019799F51C
:100990000F2D0D1BE0910801F09109018181C0E04C
:1009A000D817B8F48091080190910901FC012281C7
:1009B000C21768F42C2F4D2F6D2D0E94D709682F78
:1009C0008E2D8C0F902F0E940504CF5FEBCFDF5F41
:1009D000DFCFE0910801F09109018281C81740F44E
:1009E00060E08E2D8C0F902F0E940504CF5FF1CF19
:1009F000015030C0DF5F1E2D1D0FE0910801F09106
:100A000009018181C0E0D817A8F480910801909174
:100A10000901FC012281C21768F72C2F4D2F6D2D83
:100A20000E94D709682F812F9F2D9C0F0E940504DB
:100A3000CF5FEBCFE0910801F09109018281C817E7
:100A400040F460E0812F9F2D9C0F0E940504CF5F32
:100A5000F1CF1F5F812F902FDF91CF911F910F91C9
:100A6000FF90EF90DF9008950F931F93CF938C0129
:100A7000C0E0F80181918F01882341F00E94B60403
:100A8000BC01CF5F853014F477FFF3CF8C2FCF916B
:100A90001F910F9108950F931F93CF93DF9310929F
:100AA0000C0140930D01109210010091080110916A
:100AB00009010115110509F449C09B01EC01F80178
:100AC0008181609106017091070190E00E947A0B8C
:100AD000BC0180910A0190910B010E948B0BCB010C
:100AE0006AE070E00E947A0B90930F0180930E01F0
:100AF000309305012093040140E250E0BE0181E102
:100B000091E00E94340D80910001909101010197C4
:100B1000E9F4FE0101900020E9F73197BF016C1B59
:100B20007D0BF80181818F5F0E94710B81502091B4
:100B30000201309103012130310511F095E001C02F
:100B400097E0981718F48EEF80931001DF91CF9102
:100B50001F910F91089520910201309103012130DE
:100B6000310511F070E001C076E04FEF60E00E94C7
:100B70004B05089590E09093070180930601089536
:100B80009093010180930001089590930301809355
:100B900002010895909309018093080108958091BE
:100BA000770390917803019690937803809377036D
:100BB00020910E0130910F018217930708F469C04C
:100BC0001092780310927703E0910C01F0E0E0506E
:100BD000FF4F818981110AC080910D01823008F494
:100BE00058C0815080930D0110920C0180910C012E
:100BF00090E0FC01E050FF4F2189222309F449C015
:100C000040910001509101012091100141155105C1
:100C100021F04130510599F024C0211122C060918A
:100C20000401709105018F5E9E4F0E94340590E093
:100C3000019790910C01890F80930C0112C0609173
:100C4000040170910501409102015091030141306E
:100C5000510511F4720F01C0621B8F5E9E4F0E94FE
:100C60003405809110018F5F80931001082E000CD5
:100C7000990BE0910801F0910901218130E02817DA
:100C800039073CF41092100180910C018F5F809322
:100C90000C010C94BA00CF93DF93C0E0D1E09B87A6
:100CA0008A870E94D60084E190E09F838E83DF9143
:100CB000CF910C94AF041F93CF93DF93EC0110E01E
:100CC00088811817D0F42B81812F90E0FE01E80F66
:100CD000F91F8481222339F081110DC06A81610FCF
:100CE00041E0898106C0811106C0898141E06A81A5
:100CF000810F0E9490001F5FE3CFDF91CF911F9182
:100D00000895EF92FF921F93CF93DF937C0110E041
:100D1000C0E0D0E0D701ED91FC91EC0FFD1F808188
:100D2000813029F441E0612F8C2F0E9490002196A0
:100D3000C530D10579F7B2E0EB0EF11C1F5F17301B
:100D400039F7DF91CF911F91FF90EF900895CF93E6
:100D5000DF93CDB7DEB760970FB6F894DEBF0FBE56
:100D6000CDBF88E0E5E5F3E0DE01199601900D9234
:100D70008A95E1F788E0FE013996DE01119601902F
:100D80000D928A95E1F729813A814B815C816D81D1
:100D90007E818F81988560960FB6F894DEBF0FBE76
:100DA000CDBFDF91CF910895CF93DF93CDB7DEB75D
:100DB00060970FB6F894DEBF0FBECDBFFE01399627
:100DC00088E0DF011D928A95E9F783E0898781E059
:100DD0008C8788E0DE01119601900D928A95E1F7EB
:100DE00029813A814B815C816D817E818F819885DB
:100DF00060960FB6F894DEBF0FBECDBFDF91CF91E6
:100E00000895CF93DF93CDB7DEB728970FB6F89448
:100E1000DEBF0FBECDBF28960FB6F894DEBF0FBE63
:100E2000CDBFDF91CF910C94D406CF93DF93CDB794
:100E3000DEB760970FB6F894DEBF0FBECDBFFE01E0
:100E4000399688E0DF011D928A95E9F782E089876B
:100E500081E08C8788E0DE01119601900D928A95E1
:100E6000E1F729813A814B815C816D817E818F819F
:100E7000988560960FB6F894DEBF0FBECDBFDF91A8
:100E8000CF910895CF93DF9361E070E083E290E02B
:100E90000E94F50BEC018EE090E00E940C0CFC012E
:100EA00020E030E0AE01420F531F419351932B5F7E
:100EB0003F4F23323105B1F7DF91CF9108950E9462
:100EC000BA000C94CE0041E0FC01618180810C9459
:100ED0009000EF92FF921F93CF93DF937C0110E07D
:100EE000C0E0D0E0D701ED91FC91EC0FFD1F8081B7
:100EF000813029F441E0612F8C2F0E9490002196CF
:100F0000C530D10579F71F5FB2E0EB0EF11C173049
:100F100039F7DF91CF911F91FF90EF900C945F070D
:100F2000CF93C2E30E94A403C150E1F7CF9108958B
:100F3000CF9360E080E00E94DA00CAE061E080E0E8
:100F40000E94DA000E94900760E080E00E94DA00D0
:100F50000E949007C15091F7CF910895CF93DF93EE
:100F6000EC0182E00E94F002882329F0898186301A
:100F700010F48F5F898380E00E94F002882329F0BB
:100F80008981882311F08150898381E00E94F002D9
:100F9000882329F08881843010F48F5F888383E070
:100FA0000E94F002882329F08881882311F0815063
:100FB0008883DF91CF9108950F931F93CF93DF9391
:100FC0008C01EB0180E00E943009882391F0E981D7
:100FD000F0E0EE0FFF1FE00FF11F88810190F0811C
:100FE000E02DE80FF11D81E09081992319F080E058
:100FF00001C081E0DF91CF911F910F910895EF9291
:10100000FF920F931F93CF93DF937C018B01EA0133
:1010100080E00E9430098823C1F0B801C7010E9416
:10102000DC07882391F0D8011196EC911197F0E03C
:10103000EE0FFF1FEE0DFF1D8C910190F081E02D52
:10104000E80FF11D81E080831882DF91CF911F911D
:101050000F91FF90EF900895EF92FF920F931F93DF
:10106000CF93DF938C01EB017A01CB010E94AE0795
:10107000CE010E946307A701BE01C801DF91CF9195
:101080001F910F91FF90EF900C94FF070F931F9308
:10109000CF93DF938C01EA01C90128812223A1F0BB
:1010A000C8010E942C080E9422030E946009C80106
:1010B0000E9469078881811111C084E0DF91CF917E
:1010C0001F910F910C943A0A0E9481060E945F07BB
:1010D0000E94430A843011F481E08883DF91CF912C
:1010E0001F910F9108950F931F93CF93DF938C015E
:1010F000662381F061E080E00E94DA00C0E0D0E089
:10110000C8010E945B060E94BA002196C530D10535
:10111000B9F7F0CFDF91CF911F910F910895089506
:1011200061E080E00E94DA0060E080E00C94DA0088
:101130001092800084E080938100109285001092CC
:101140008400089580918400909185000895AC01F9
:1011500080918400909185009C01241B350B283ED2
:101160003340B0F708952091840030918500820FBC
:10117000931F0C94A708CF93DF931F92CDB7DEB7D0
:101180009E012F5F3F4F45E06DE573E00E940F0A1F
:1011900091E0980F909331019981915097BD18BCBF
:1011A00095B5977039F095B5209131012770987FEA
:1011B000922B95BD298130E0E82FF0E0E35AFC4FF7
:1011C000C901008002C0880F991F0A94E2F70F90AE
:1011D000DF91CF91089585B3897F85BB85B59091C7
:1011E00031019770887F892B85BD089585B5887FEB
:1011F00085BD089585B382FB882780F908950097FF
:1012000019F0019741F0089584B58F736295660FC8
:10121000660F607C05C084B563706295607F8F7CCB
:10122000682B64BD0895009741F0019759F484B587
:101230008E7F84BD84B5826002C084B58C7F84BDFE
:1012400081E0089580E0089514BC15BC16BC18BC5C
:1012500084B58E7F84BD84B5826084BD81E00895AD
:1012600081110DC080917903882329F090917A0330
:1012700081E0892702C080E090E08170089580E0DD
:10128000089581110BC080917903811103C0809171
:101290007A0302C080E090E08170089580E00895B4
:1012A000811103C080917903089580E00895811130
:1012B00005C09091790381E08927089580E0089521
:1012C000E9E7F3E08081818389B1881F8827881F3F
:1012D0008083089557985F9808959C0121503109A3
:1012E0003093CD0081508093CC000895CF93DF934D
:1012F000EC01888199810E946D098A819BEF980F8A
:10130000943008F088E098E19093C9008550880FE8
:101310008093CA0081E0DF91CF9108958091C80049
:10132000881F8827881F08958091C80085FB88271B
:1013300080F908958091C80086FB882780F9089578
:10134000CF93C82F0E9494098823E1F38091C800AD
:1013500080648093C800C093CE00CF91089580919F
:10136000C80087FFFCCF8091CE000895CF93DF9314
:10137000EC018991882319F00E94A009FACFDF912E
:10138000CF910895009789F0FC012381621B67FDCE
:1013900009C0062E000C770B248130E081E0621733
:1013A00073070CF080E08170089580E00895CF937A
:1013B000DF93FC01892B79F18181481760F59281D7
:1013C000291748F59381A62FA91BA7FD24C00A2E33
:1013D000000CBB0BC481D0E0AC17BD07E4F4622F56
:1013E0000E94710B480F858190E0BD010E947A0B2D
:1013F0000696242F269526952695E80FF91FE20FCD
:10140000F11D808190E0477002C0959587954A95BF
:10141000E2F7817001C080E0DF91CF910895CF9312
:10142000DF93DC01FB0160E070E080E0C1E0D0E030
:101430008417C9F09191BE01092E02C0660F771F73
:101440000A94E2F76F5F7F4F769567956A0F7B1F6F
:1014500002C0769567959A95E2F76F3F710519F08E
:1014600010F08F5FE5CFF9016083DF91CF91089590
:101470000C94C3030C94C3030E94B90381110C9410
:10148000BB038FEF08950C943C0ACF93CAE00E94EF
:10149000A4030E943C0AC15019F08130C1F702C078
:1014A000813029F481E00E94C30380E009C00E94DA
:1014B000A40381E00E94C3030E943C0A8130B9F773
:1014C000CF910895CF93DF93CDB7DEB7CD56D10935
:1014D0000FB6F894DEBF0FBECDBF0E9459000E9428
:1014E000E5000E94A7064E01E1E48E0E911CF40176
:1014F00020833183428353836483758386839783F8
:101500000E9401072A962FAF2A972B963FAF2B9761
:101510002C964FAF2C972D965FAF2D972E966FAFD1
:101520002E972F967FAF2F9760968FAF609761961B
:101530009FAF61970E94D40662962FAF6297639621
:101540003FAF639764964FAF649765965FAF6597BB
:1015500066966FAF669767967FAF679768968FAF0F
:10156000689769969FAF69970E9415076A962FAF93
:101570006A976B963FAF6B976C964FAF6C976D9673
:101580005FAF6D976E966FAF6E976F967FAF6F97E9
:10159000A0968FAFA097A1969FAFA1978E010F5FE6
:1015A0001F4F80E4F80111928A95E9F79A828982A7
:1015B000C40108969C838B8308969E838D83F8E1F3
:1015C0008F0E911C98868F820E94FE00A9969FAF75
:1015D0008EAFA9970E944207AE969FAF8EAFAE978F
:1015E000CE018C599F4FA7969FAF8EAFA797A59618
:1015F0001FAEA597A5969FADA597AA969FAFAA9750
:10160000E92FF0E0EE0FFF1F81E090E08C0F9D1FAF
:10161000E80FF91FA9964EAD5FADA997BE016C59B1
:101620007F4F808191810E942702FE013196AC9606
:10163000FFAFEEAFAC97412C512C612C712C812C5B
:10164000912C212C312CA596AFACA5979201A3012A
:10165000B401C101B12CC12CD12CE12CF12C00E042
:1016600010E00E94CA0B09F0C0F4AC96EEADFFADDD
:10167000AC9781919191AC96FFAFEEAFAC970E9481
:101680005B069201A301B401C101A1E00E94BE0B5F
:1016900029013A014B011C01D6CFAA96FFADAA97AA
:1016A000F43009F0A7CF0E94450AA2961FAEA29778
:1016B000A3961FAEA397A4968FAFA4970E94A403EE
:1016C000A9962EAD3FADA997AE014D595F4FBE0112
:1016D0006F597F4FAE968EAD9FADAE970E94460874
:1016E000EDCF002480FD060E660F11F08695D1F730
:1016F000802D08950024552704C0080E591F880F17
:10170000991F009729F076956795B8F37105B9F799
:10171000802D952F0895AA1BBB1B51E107C0AA1F5E
:10172000BB1FA617B70710F0A61BB70B881F991F82
:101730005A95A9F780959095BC01CD010895052E85
:1017400097FB1EF400940E94B60B57FD07D00E9431
:10175000D30B07FC03D04EF40C94B60B5095409578
:10176000309521953F4F4F4F5F4F0895909580954D
:10177000709561957F4F8F4F9F4F08950024A7FD6F
:1017800000942A0F301D401D501D601D701D801DCE
:10179000901D08952A153B054C055D056E057F05D6
:1017A000800791070895A1E21A2EAA1BBB1BFD0119
:1017B0000DC0AA1FBB1FEE1FFF1FA217B307E40730
:1017C000F50720F0A21BB30BE40BF50B661F771F88
:1017D000881F991F1A9469F7609570958095909568
:1017E0009B01AC01BD01CF0108950F931F93CF93CF
:1017F000DF930E947A0B8C010E940C0CEC01009785
:1018000029F0A80160E070E00E942D0DCE01DF916B
:10181000CF911F910F9108950F931F93CF93DF9353
:101820008230910510F482E090E0E0917D03F09128
:101830007E0320E030E0A0E0B0E0309719F1408175
:1018400051810281138148175907C8F08417950701
:1018500069F4109731F012960C93129713961C931B
:1018600027C000937D0310937E0322C0211531050C
:1018700019F04217530718F49A01BD01EF01DF0177
:10188000F801DBCF21153105F9F0281B390B243085
:10189000310580F48A819B816115710521F0FB017E
:1018A0009383828304C090937E0380937D03FE0123
:1018B000329644C0FE01E20FF31F819391932250B0
:1018C0003109398328833AC020917B0330917C030E
:1018D000232B41F4209134013091350130937C0366
:1018E00020937B0320913201309133012115310582
:1018F00041F42DB73EB74091360150913701241B7A
:10190000350BE0917B03F0917C03E217F307A0F421
:101910002E1B3F0B2817390778F0AC014E5F5F4F45
:101920002417350748F04E0F5F1F50937C034093F8
:101930007B038193919302C0E0E0F0E0CF01DF915F
:10194000CF911F910F910895CF93DF93009709F4E2
:1019500081C0FC01329713821282A0917D03B09165
:101960007E03109781F420813181820F931F209193
:101970007B0330917C032817390751F5F0937C03E2
:10198000E0937B0367C0ED0120E030E0CE17DF0776
:1019900040F44A815B819E0141155105F1F0EA0155
:1019A000F5CFD383C28340815181840F951FC8171F
:1019B000D90759F488819981840F951F02969183E4
:1019C00080838A819B81938382832115310529F449
:1019D000F0937E03E0937D033DC0E901FB83EA833E
:1019E00049915991C40FD51FEC17FD0761F480810F
:1019F0009181840F951F0296E901998388838281E2
:101A000093819B838A83E0E0F0E012968D919C9114
:101A10001397009719F0FD01DC01F7CF8D919C9190
:101A200011979D012E5F3F4F820F931F20917B03E3
:101A300030917C032817390769F4309729F4109204
:101A40007E0310927D0302C013821282B0937C0346
:101A5000A0937B03DF91CF910895DC0101C06D93CA
:101A600041505040E0F70895FB01DC0141505040E7
:101A700048F001900D920020C9F701C01D9241501D
:0A1A80005040E0F70895F894FFCFFE
:101A8A000000000000001400000000000000000038
:101A9A00000000000000000000000000000000003C
:101AAA00000000000000000000000000000000002C
:101ABA00000100007F032000010507205F050000E8
:101ACA00000000C6186380014A290000004A7DF51B
:101ADA009502C417471F0163222232062615519325
:101AEA0005860800000088082108028220848800F0
:101AFA00805457090080904F080000006088000059
:101B0A00800F00000000008C0100222202002EE655
:101B1A003AA303C4104288032E4244C4072E420744
:101B2A00A30388A9F411023F8407A3032E8617A3EF
:101B3A00033F424408012E4617A3032E460FA30370
:101B4A00C018600C00C0186088008888200802004D
:101B5A007CF0010082208888002E424400012E4237
:101B6A005BAB0344C51F63042FC617E3032E86101D
:101B7A00A2032FC618E3033F8417C2073F84174204
:101B8A00002E861EA30731C61F63048E10428803E7
:101B9A00104218A3033195515204218410C20771CF
:101BAA00D71A630471D61C63042EC618A3032FC662
:101BBA001742002EC65893052FC61763042E060730
:101BCA00A3039F1042080131C618A30331C6181592
:101BDA000131C65AAB02312AA26204312A420801F3
:101BEA001F2222C207278410C20120088220000E69
:101BFA00218490034445000000000000C0078220B1
:101C0A000000000038E8A30721B419E30300B81064
:101C1A00A20310DA1CA30700B8F883034C8A2384B2
:101C2A0000C0C7E8A10321B4196304041842880359
:101C3A00083084920121A4324A02861042880300A5
:101C4A00AC5A630400B419630400B818A30300BCB7
:101C5A00F8420000D8EC210400B419420000B8E0B0
:101C6A00E003421C21240300C418B30500C418155C
:101C7A000100C45AAB02004445540400C4E8A1035D
:101C8A00007C44C40788104108028410420801827B
:101C9A001044880000888A00004869212050757322
:101CAA0068204E415620746F20737461727400006C
:101CBA00034000800310038003200040002000102E
:101CCA000008000400020001038003400320008092
:101CDA000310D00008040000010000000000030601
:021CEA00080AE6
:00000001FF
