:100000000C943A000C9457000C9457000C94570031
:100010000C9457000C9457000C9457000C94570004
:100020000C9457000C9457000C9457000C945700F4
:100030000C9457000C9457000C9457000C945700E4
:100040000C9457000C9457000C9457000C945700D4
:100050000C9457000C9457000C9457000C945700C4
:100060000C9457000C9457000C9457000C945700B4
:100070000C94570011241FBECFEFD4E0DEBFCDBFDC
:1000800013E0A0E0B1E0ECE2F1E102C005900D92D6
:10009000AA37B107D9F723E0AAE7B3E001C01D9260
:1000A000A339B207E1F70E94DD070C9494080C9481
:1000B00000000E94C70084EF91E00E9491020E941C
:1000C00071000E9490020E9415070E94D30060E018
:1000D00080E00E94CB000E94BF000E94D6000C94DA
:1000E000BF00E1E6F0E080E880831082A89584B745
:1000F000877F84BFE0E6F0E08081886180831082A2
:100100000895853098F4673088F421E030E001C02C
:10011000220F6A95EAF7E82FF0E0E558FC4F822FAE
:100120008095908189234111822B808308958530A9
:1001300080F4673070F4E82FF0E0E558FC4F81E080
:1001400090E001C0880F6A95EAF79081982381E0DA
:1001500009F480E0089560917A03E62FF0E0E55815
:10016000FC4F80810E948E0180917A038F5F8530E1
:1001700018F480937A03089510927A030895EBE7B8
:10018000F3E01082118212821382148208950E9479
:100190006C010C94BF00811105C0662311F0429AD6
:1001A0000895429808953A9A429A089584EF91E00A
:1001B0000E945E0586E591E00E94E10489E10E94CB
:1001C000D10481E090E00E94D70482E391E00E9494
:1001D000C4040E94A6020E9427020E940B070E94EC
:1001E000E60484E00E94F701811105C080E00E94CE
:1001F000DD06882371F30895CF93DF93EC0180E04F
:100200000E94F701882329F08A81882311F0815008
:100210008A8382E00E94F701882369F08B8188231A
:1002200051F08A812881280F3327331F2730310569
:1002300014F48F5F8A8381E00E94F701882329F0FC
:100240008981843010F48F5F898383E00E94F701F5
:10025000882329F08981882311F081508983DF91D7
:10026000CF910895CF93DF93EC0184E00E94F701D2
:10027000882339F08B81882321F01B82DF91CF9175
:10028000089584E00E94F7018823C1F38B818111D6
:10029000F5CF81E08B83F2CFD82FC92F8D2F9C2FE4
:1002A0000E94FC008D2F9C2F0E9432010E94270289
:1002B0008D2F9C2F0E946E050E94AB000E94BF00F4
:1002C000EDCF9C01FC01FF2784A1832B84A385A192
:1002D000832B85A381E00895CF93DF93C1E4D3E01E
:1002E000899199910E94610183E0CF34D807C1F7C9
:1002F00083E090E40E94610180E090E80E94610147
:1003000083E090E10E94610183E090E80E94610136
:1003100083E090E2DF91CF910C946101E091800342
:10032000F0E0EE0FFF1FE95CFC4F20813181F90105
:10033000FF2795A1932B95A3A1E4B3E02D913D91C7
:10034000F901FF2780FF1CC025A1932F90959223D0
:1003500095A3869593E0AF34B90781F7E62FF0E0D7
:10036000EE0FFF1FE95CFC4F20813181F901FF276F
:1003700095A1832F8095892385A360938003089599
:1003800095A1932BE5CF9C0163307105A1F040F45A
:1003900061307105E1F06230710511F180E008957E
:1003A00064307105D9F7F901FF2784A1832B84A359
:1003B00085A1832B09C0F901FF2784A1832B84A386
:1003C00095A1832F8095892385A381E00895F90164
:1003D000FF2794A1832F8095982394A395A1F3CF11
:1003E000F901FF2794A1832F80958923E0CFE82F7F
:1003F000F0E0EE0FFF1FEF57FC4F8081882329F0BC
:10040000818191E089278170089580E0FCCFE82FF9
:10041000F0E0EE0FFF1FEF57FC4F8081811103C00A
:1004200081818170089580E0FCCFE82FF0E0EE0F2D
:10043000FF1FEF57FC4F80810895E82FF0E0EE0F8B
:10044000FF1FEF57FC4F908181E0892708957F922D
:100450008F929F92AF92BF92CF92DF92EF92FF92D4
:100460000F931F93CF93DF93C1E8D3E05FE4C52ED2
:1004700053E0D52E66E0762E88818983F6010191BE
:1004800011916F015801BB24F50124A1E12EFF2435
:1004900085A190E08E219F2130E02E213F21232B4A
:1004A000B1F133E0832E912C892B19F094E0892E41
:1004B000912C64E070E0C8010E94C30162E070E02A
:1004C000C8010E94C301872D8A95F1F7F50183A128
:1004D00090E0E822F92281E0EF2809F080E08883AB
:1004E000B401C8010E94C3012296F3E0CB38DF07B4
:1004F00019F6DF91CF911F910F91FF90EF90DF9050
:10050000CF90BF90AF909F908F907F900895882458
:100510008394912C892B69F282E0882E912CC9CF8B
:100520000895CF93DF93EC010E9447069E0150E0AF
:1005300040E062E17AE780E090E00E944408309376
:100540008E0320938D03DF91CF91089580918B03CB
:1005500090918C030E94560680918B0390918C039E
:1005600020918D0330918E03820F931F90938C0303
:1005700080938B0308950C9438070C9459070C94BE
:100580003E070C9444070C944A070E944A070E94B5
:1005900044078823E1F38CE291E00197F1F70E9490
:1005A000380781110C94BD0208950C946007CF9315
:1005B000DF9300D00F92CDB7DEB7809159039091B1
:1005C0005A03A0915B0389839A83AB83509A589A0C
:1005D0000E94D1068FE690E00E946A0681E090E0DA
:1005E0000E94C00661E070E081E090E00E94AD06EC
:1005F0000E949906CE0101960E9420070F900F904D
:100600000F90DF91CF910895692F0C94970041E0EE
:10061000611101C040E0692F0C9481000C94070324
:100620005F926F927F928F929F92AF92BF92CF9282
:10063000DF92EF92FF920F931F93CF93DF93862E5B
:10064000772E942E682E592EB62EA72E062E000C2D
:10065000770BE82F082E000CFF0B8B010E1B1F0BD6
:10066000272D072C000C330B492F092E000C550B9E
:10067000E901C41BD50B17FF59C0DD24DA94D7FD5F
:1006800002C0DD24D3948F01061B170BCC24CA941F
:10069000D7FF03C0EA01C21BD30B0C171D076CF177
:1006A000780117FF03C08FEFE81AF80AF594E79472
:1006B000A92E681014C0692D8B2D9A2DDF91CF9132
:1006C0001F910F91FF90EF90DF90CF90BF90AF9070
:1006D0009F908F907F906F905F900C940703692D8F
:1006E000862D9A2D0E940703EC1AFD0AF7FE03C01F
:1006F000E00EF11EAD0C6C0CDCCF7E01D7FF03C009
:100700009FEFE91AF90AF594E794B82E571499F275
:10071000692D8B2D952D0E940703E01AF10AF7FE33
:1007200003C0EC0EFD1EBC0C5D0CF0CFCC24C394BA
:10073000DD24DA94D7FDAECFDD24D394AECFFF9283
:100740000F931F93CF93DF93D82FF92E162FC72F18
:10075000042F792F0E941003402F6D2F7C2F8D2F97
:100760009F2D0E941003402F612F7C2F812F9F2DE2
:100770000E941003402F612F7C2F8D2F9C2FDF9123
:10078000CF911F910F91FF900C9410030E94BF0016
:10079000E0E0F1E0118A14860895DF92EF92FF9273
:1007A0000F931F93CF93DF93D82E7B01C62F0F2D6E
:1007B0008091020190910301D0E0019751F1CE2D7B
:1007C000CD0FE0910801F09109018181D81708F45B
:1007D0005CC0D0E0E0910801F09109018281D81756
:1007E00008F455C0CF5F27C0212F4D2F6D2D0E94DB
:1007F0008107682F8E2D810F902F0E9407031F5FA6
:100800008091080190910901FC012281121760F387
:10081000DF5F0F2D0D1BE0910801F091090181812F
:10082000D81798F0D0E0E0910801F0910901828199
:10083000D81768F001508C2F902FDF91CF911F9126
:100840000F91FF90EF90DF90089510E0D9CF60E016
:100850008E2D8D0F902F0E940703DF5FE4CF212F95
:100860004D2F6D2D0E948107682F8C2F9F2D910F8A
:100870000E9407031F5F8091080190910901FC010C
:100880002281121760F3DF5F9ACF10E0F4CF60E0AF
:100890008C2F9F2D9D0F0E940703DF5F9BCF1F931F
:1008A000CF93DF93EC0110E08991882341F00E94FF
:1008B000CD03BC011F5F853014F477FFF5CF812F86
:1008C000DF91CF911F9108950F931F93CF93DF93E3
:1008D000EC01362F272F10920C0140930D0110923E
:1008E000100100910801109109010115110509F489
:1008F00046C0F8018181609106017091070190E086
:100900000E941F08BC0180910A0190910B010E9476
:100910003008CB016AE070E00E941F0890930F013D
:1009200080930E01309304012093050140E250E0D2
:10093000BE0181E191E00E948508809100019091C3
:1009400001010197E1F4FE0101900020E9F73197E0
:10095000BF016C1B7D0BF80181818F5F0E9416081F
:100960008150209102013091030195E02130310541
:1009700009F497E0981718F48EEF80931001DF9137
:10098000CF911F910F9108952091020130910301A1
:1009900070E02130310509F476E04FEF60E00C940F
:1009A000640490E09093070180930601089590936A
:1009B0000101809300010895909303018093020147
:1009C00008959093090180930801089580918F0301
:1009D0009091900301969093900380938F032091C0
:1009E0000E0130910F018217930708F441C0109255
:1009F000900310928F03E0910C01F0E0E050FF4F64
:100A00008189811109C080910D01823088F1815066
:100A100080930D0110920C0180910C0190E0FC017B
:100A2000E050FF4F2189222319F14091000150919C
:100A300001012091100141155105E1F041305105AE
:100A400051F1809110018F5F80931001082E000CEE
:100A5000990BE0910801F0910901218128171906ED
:100A60003CF41092100180910C018F5F80930C0177
:100A70000C94AB002111E5CF609104017091050148
:100A80008F5E9E4F0E944F0490910C019150980FE1
:100A900090930C01D6CF60910401709105014091B3
:100AA0000201509103014130510531F4720F8F5E04
:100AB0009E4F0E944F04C5CF621BF9CFCF93DF93A7
:100AC000C0E0D1E09B878A870E94C70084E190E064
:100AD0009F838E83DF91CF910C94C6031F93CF9396
:100AE000DF93EC0110E08881181720F0DF91CF919F
:100AF0001F9108956A8189819B81992331F0610F4B
:100B000041E00E9481001F5FEECF41E0810FF9CFED
:100B1000CF93DF93CDB7DEB760970FB6F894DEBF03
:100B20000FBECDBF88E0ECE5F3E0DE011996019041
:100B30000D928A95E1F788E0FE013996DE01119663
:100B400001900D928A95E1F729813A814B815C8170
:100B50006D817E818F81988560960FB6F894DEBF97
:100B60000FBECDBFDF91CF910895CF93DF93CDB767
:100B7000DEB760970FB6F894DEBF0FBECDBFFE01A3
:100B80003A9687E0DF011D928A95E9F783E089872D
:100B900088E03197DE01119601900D928A95E1F778
:100BA00029813A814B815C816D817E818F8198851D
:100BB00060960FB6F894DEBF0FBECDBFDF91CF9128
:100BC0000895CF93DF93CDB7DEB760970FB6F89453
:100BD000DEBF0FBECDBF88E0E4E6F3E0DE0119968C
:100BE00001900D928A95E1F788E0FE013996DE01C9
:100BF000119601900D928A95E1F729813A814B81F6
:100C00005C816D817E818F81988560960FB6F894A6
:100C1000DEBF0FBECDBFDF91CF910895CF93DF939D
:100C2000CDB7DEB760970FB6F894DEBF0FBECDBF6D
:100C300088E0ECE6F3E0DE01199601900D928A95CA
:100C4000E1F788E0FE013996DE01119601900D92E0
:100C50008A95E1F729813A814B815C816D817E81A2
:100C60008F81988560960FB6F894DEBF0FBECDBF1A
:100C7000DF91CF91089561E080E00E94CB0080E099
:100C800092E10E94620660E080E00C94CB0010923A
:100C9000800084E08093810010928500109284008F
:100CA0000895809184009091850008959C01809121
:100CB000840090918500AC01421B530B483E534089
:100CC000B0F708952091840030918500820F931F22
:100CD0000C945606CF93DF930F92CDB7DEB79E01EB
:100CE0002F5F3F4F45E064E773E00E94B507E82FB0
:100CF00081E08E0F809331018981815087BD18BCBE
:100D000085B5877039F095B5809131018770987FEE
:100D1000892B85BD898190E0F0E0EC58FC4F208163
:100D200002C0880F991F2A95E2F70F90DF91CF91AB
:100D3000089585B3897F85BB95B580913101877012
:100D4000987F892B85BD089585B5887F85BD0895D9
:100D500085B382FB882780F90895009719F00197E1
:100D600051F0089584B58F736295660F660F607CAD
:100D7000682B64BD089584B5629560738F7CF8CF4D
:100D8000009721F0019739F080E0089584B58C7FB9
:100D900084BD81E0089584B58E7F84BD84B5826072
:100DA000F7CF14BC15BC16BC18BC84B58E7F84BDAF
:100DB00084B5826084BD81E0089581110CC080916A
:100DC0009103882331F08091920391E0892781700B
:100DD000089580E0FCCF80E0089581110AC08091E1
:100DE0009103811104C0809192038170089580E085
:100DF000FCCF80E00895811103C080919103089594
:100E000080E00895811105C08091910391E08927C8
:100E1000089580E00895E1E9F3E08081818389B15C
:100E2000881F8827881F8083089557985F980895A2
:100E30009C0101979093CD0021502093CC00089500
:100E4000CF93DF93EC01888199810E9418078A81F2
:100E50009BEF980F943008F088E098E19093C900D8
:100E60008550880F8093CA0081E0DF91CF9108956B
:100E70008091C800881F8827881F08958091C80026
:100E800085FB882780F908958091C80086FB882714
:100E900080F90895CF93C82F0E943E078823E1F37D
:100EA0008091C80080648093C800C093CE00CF9129
:100EB00008958091C80087FFFCCF8091CE000895EF
:100EC000CF93DF93EC018991811103C0DF91CF9122
:100ED00008950E944A07F7CFFC01892B81F0838196
:100EE000681B67FD09C0062E000C770B948181E01A
:100EF0009617170609F00CF480E08170089580E0E1
:100F00000895FC01A62F622F892B69F18181481772
:100F100050F59281291738F59381A91BA7FD23C0AD
:100F20000A2E000CBB0B94819A171B06E1F0DCF033
:100F30000E941608480F858190E0BD010E941F089D
:100F40009C01942F969596959695E20FF31FE90FC5
:100F5000F11D868190E0477002C0959587954A956E
:100F6000E2F78170089580E00895CF93DF93EC015C
:100F7000D901FB0120E080E061E070E0841304C04F
:100F80002C93DF91CF91089591919B01092E02C07E
:100F9000220F331F0A94E2F72F5F3F4F36952795B4
:100FA0002C0F3D1F02C0369527959A95E2F72F3FEB
:100FB000310531F328F38F5FE1CFCDB7DEB7A097CE
:100FC0000FB6F894DEBF0FBECDBF0E9459000E943D
:100FD000880529833A834B835C836D837E838F836B
:100FE00098870E94B50529873A874B875C876D876C
:100FF0007E878F87988B0E94E105298B3A8B4B8BDC
:101000005C8B6D8B7E8B8F8B988F0E940E06298F49
:101010003A8F4B8F5C8F6D8F7E8F8F8F98A3CE0111
:1010200001960E944C010E94AB00FDCF002480FD80
:10103000060E660F11F08695D1F7802D08950024D5
:10104000552704C0080E591F880F991F009729F0D3
:1010500076956795B8F37105B9F7802D952F0895AA
:10106000AA1BBB1B51E107C0AA1FBB1FA617B707CE
:1010700010F0A61BB70B881F991F5A95A9F78095EA
:101080009095BC01CD010895052E97FB1EF40094A8
:101090000E945B0857FD07D00E94630807FC03D03D
:1010A0004EF40C945B0850954095309521953F4F38
:1010B0004F4F5F4F089590958095709561957F4F44
:1010C0008F4F9F4F0895A1E21A2EAA1BBB1BFD0153
:1010D0000DC0AA1FBB1FEE1FFF1FA217B307E40717
:1010E000F50720F0A21BB30BE40BF50B661F771F6F
:1010F000881F991F1A9469F760957095809590954F
:101100009B01AC01BD01CF010895FB01DC01415001
:10111000504048F001900D920020C9F701C01D9287
:0C11200041505040E0F70895F894FFCFD4
:10112C00000000000000140000000000000000009F
:10113C0000000000000000000000000000000000A3
:10114C000000000000000000000000000000000093
:10115C00000157656C636F6D6521205075736820B5
:10116C006120627574746F6E20746F20636F6E747F
:10117C00696E75650000010507205F050000000021
:10118C0000C6186380014A290000004A7DF59502CB
:10119C00C417471F01632222320626155193058678
:1011AC0008000000880821080282208488008054EE
:1011BC0057090080904F0800000060880000800FE5
:1011CC0000000000008C0100222202002EE63AA34F
:1011DC0003C4104288032E4244C4072E4207A303C3
:1011EC0088A9F411023F8407A3032E8617A3033F9B
:1011FC00424408012E4617A3032E460FA303C01822
:10120C00600C00C0186088008888200802007CF000
:10121C00010082208888002E424400012E425BABE4
:10122C000344C51F63042FC617E3032E8610A203C5
:10123C002FC618E3033F8417C2073F841742002EC2
:10124C00861EA30731C61F63048E1042880310420A
:10125C0018A3033195515204218410C20771D71A77
:10126C00630471D61C63042EC618A3032FC6174241
:10127C00002EC65893052FC61763042E0607A3032A
:10128C009F1042080131C618A30331C6181501314D
:10129C00C65AAB02312AA26204312A4208011F222B
:1012AC0022C207278410C20120088220000E21844C
:1012BC0090034445000000000000C007822000009D
:1012CC00000038E8A30721B419E30300B810A20307
:1012DC0010DA1CA30700B8F883034C8A238400C0DF
:1012EC00C7E8A10321B41963040418428803083029
:1012FC0084920121A4324A02861042880300AC5A1F
:10130C00630400B419630400B818A30300BCF842CA
:10131C000000D8EC210400B419420000B8E0E0034E
:10132C00421C21240300C418B30500C41815010085
:10133C00C45AAB02004445540400C4E8A103007C29
:10134C0044C40788104108028410420801821044EA
:10135C00880000888A00000340008003100380038B
:10136C0020004000200010000800040002000103CF
:10137C00800340032000800310D000080401010109
:10138C000000000003000001000000000202040045
:0A139C0000000000000306080A002C
:00000001FF
