:100000000C943A000C9457000C9457000C94570031
:100010000C9457000C9457000C9457000C94570004
:100020000C9457000C9457000C9457000C945700F4
:100030000C9457000C9457000C9457000C945700E4
:100040000C9457000C9457000C9457000C945700D4
:100050000C9457000C9457000C9457000C945700C4
:100060000C9457000C9457000C9457000C945700B4
:100070000C94570011241FBECFEFD4E0DEBFCDBFDC
:1000800013E0A0E0B1E0E6ECF5E102C005900D92CE
:10009000AA37B107D9F723E0AAE7B3E001C01D9260
:1000A000A339B207E1F70E94A7080C94E10A0C9467
:1000B00000000E94C30084EF91E00E9460030E9450
:1000C0006D000E945F030E94D9070E94CF0060E08C
:1000D00080E00E94C7000C94BB00E1E6F0E080E8FD
:1000E00080831082A89584B7877F84BFE0E6F0E024
:1000F00080818861808310820895853098F467300C
:1001000088F421E030E001C0220F6A95EAF7E82F79
:10011000F0E0E558FC4F922F9095808189234111A2
:10012000822B80830895853080F4673070F421E05D
:1001300030E001C0220F6A95EAF7E82FF0E0E558B9
:10014000FC4F8081282381E009F480E008956091CC
:100150007A03E62FF0E0E558FC4F80810E945702B9
:1001600080917A038F5F853018F480937A03089525
:1001700010927A030895EBE7F3E010821182128265
:100180001382148208950E9435020C94BB008111E1
:1001900005C0662311F0429A0895429808953A9A4C
:1001A000429A089560E080E00E94C70084EF91E0E9
:1001B0000E941C0686E591E00E949B0589E10E9451
:1001C0008B0581E090E00E94910582E391E00E941E
:1001D0007C050E9475030E94F3020E94CF070E94D3
:1001E000A00584E00E94C10281110C94BB0080E054
:1001F0000E949F07882369F3F8CFCF93DF93EC0128
:1002000080E00E94C102882329F08A81882311F0AE
:1002100081508A8382E00E94C1028823A1F08A81F2
:100220009881282F30E0290F311D2730310524F423
:100230009B81992359F105C0863028F49B81911147
:1002400002C08F5F8A8381E00E94C102882399F0F7
:100250008981843018F49B8191110BC09881282FDB
:1002600030E0290F311D253031052CF49B8191118F
:1002700002C08F5F898383E00E94C102882349F016
:100280008981882331F08150898303C08630C8F288
:10029000DACFDF91CF910895CF93DF93EC0184E023
:1002A0000E94C102882361F08B81882349F0298153
:1002B000888190E0820F911D069714F41B8211C073
:1002C00084E00E94C102882361F08B81811109C002
:1002D0002A81888190E0820F911D089714F481E0B3
:1002E0008B83DF91CF9108950F931F93CF93DF936B
:1002F000EC018B0180E00E949F07982F882379F101
:10030000488120E030E0241740F58B81EA81598153
:10031000882389F0B9016E0F711DFB01EE0FFF1FDD
:10032000E00FF11F0190F081E02DE50FF11D8081BC
:10033000813081F416C0F0E0EE0FFF1FE00FF11FD7
:100340000190F081E02DE20FF31FE50FF11D5081C8
:10035000513041F02F5F3F4FD6CF892F03C081E04E
:1003600001C080E0DF91CF911F910F910895EF922E
:10037000FF920F931F93CF93DF937C018B01EA01D0
:10038000BA010E9474018823C9F180E00E949F078E
:100390008823A1F120E031E0D7018C91281750F596
:1003A000D70113964C9113971296EC911297822FC6
:1003B00090E011966C91442371F0AC014E0F511DE9
:1003C000FA01EE0FFF1FEC0FFD1F0190F081E02DF1
:1003D000E60FF11D0CC0F0E0EE0FFF1FEC0FFD1F4C
:1003E00040815181460F511DFA01E80FF91F3083FA
:1003F0002F5FD2CFF80180818F5F8083DF91CF9113
:100400001F910F91FF90EF900895EF92FF920F933D
:100410001F93CF93DF93EC018B017A010E94FD00C3
:10042000CE010E944C01A701B801CE010E94B70184
:100430000E94F3020E94CF07CE010E942C060E9468
:10044000A700DF91CF911F910F91FF90EF900C9437
:10045000BB009C01FC01FF2784A1832B84A395A1F1
:10046000892F832B85A381E00895CF93DF93C1E487
:10047000D3E0899199910E94290283E0CF34D80773
:10048000C1F783E090E40E94290280E090E80E9496
:10049000290283E090E10E94290283E090E80E9413
:1004A000290283E090E2DF91CF910C942902E09140
:1004B0008003F0E0EE0FFF1FE95CFC4F20813181EB
:1004C000F901FF2795A1932B95A3E1E4F3E097E0D1
:1004D00020813181D901BB2795962C91959780FF7A
:1004E00003C03095232301C0232B95962C9386952A
:1004F000915032969111ECCFE62FF0E0EE0FFF1FF6
:10050000E95CFC4F80819181FC01FF2785A19095DA
:10051000892385A36093800308956230710519F1E2
:1005200070F46130710559F5FC01FF2724A1392FC2
:100530003095922F932394A385A183231DC063300C
:10054000710541F064307105D1F4FC01FF2784A1ED
:10055000892B0FC0FC01FF2784A1892B84A385A1CF
:100560009095892309C0FC01FF2784A1292F20959C
:10057000822384A385A1892B85A381E0089580E04F
:100580000895E82FF0E0EE0FFF1FEF57FC4F80813A
:10059000882321F0918181E0892702C080E090E0EA
:1005A00081700895E82FF0E0EE0FFF1FEF57FC4F2A
:1005B0008081811102C0818102C080E090E0817061
:1005C0000895E82FF0E0EE0FFF1FEF57FC4F8081FA
:1005D0000895E82FF0E0EE0FFF1FEF57FC4F9081DA
:1005E00081E0892708957F928F929F92AF92BF9268
:1005F000CF92DF92EF92FF920F931F93CF93DF93EF
:10060000C1E8D3E05FE4C52E53E0D52E66E0762E38
:1006100088818983F601019111916F015801BB24F2
:10062000F50124A1E12EFF2485A190E08E219F21D8
:1006300030E02E213F21232B31F0892B51F433E080
:10064000832E912C0DC0892B41F488248394912C06
:1006500007C094E0892E912C03C082E0882E912C53
:1006600064E070E0C8010E948D0262E070E0C801A1
:100670000E948D02872D8A95F1F7F50183A190E004
:10068000E822F92281E0EF2809F080E08883B401B4
:10069000C8010E948D022296F3E0CB38DF0709F0F3
:1006A000B7CFDF91CF911F910F91FF90EF90DF9027
:1006B000CF90BF90AF909F908F907F9008950895B6
:1006C000CF93DF93EC010E9407079E0140E050E0CA
:1006D00062E17AE780E090E00E947C0A30938E032A
:1006E00020938D03DF91CF91089580918B0390919A
:1006F0008C030E94160720918B0330918C0380910C
:100700008D0390918E03820F931F90938C0380939F
:100710008B0308950C94FD070C941E080C94030899
:100720000C9409080C940F080E940F080E940908F5
:100730008823E1F38CE291E00197F1F70E94FD0735
:1007400081110C948C0308950C942508CF93DF93AA
:1007500000D01F92CDB7DEB78091590390915A0314
:10076000A0915B0389839A83AB83509A589A0E9425
:1007700093078FE690E00E942A0781E090E00E94B4
:10078000820761E070E081E090E00E946E070E94C5
:100790005A07CE0101960E94E5070F900F900F9027
:1007A000DF91CF910895692F0C94930041E061117E
:1007B00001C040E0692F0C947D000C94D6035F9239
:1007C0006F927F928F929F92AF92BF92CF92DF9261
:1007D000EF92FF920F931F93CF93DF93562E872EA6
:1007E000942E5C01E62EF72EC62F660FDD0BC81B7C
:1007F000D10987FDD395072F770F110B091B11091D
:1008000097FD1395D7FF03C077247A9402C077240D
:10081000739417FF03C066246A9402C0662463942D
:10082000D7FF03C0D195C195D10917FF03C011951A
:1008300001951109C017D107A4F06E01D594C79492
:10084000F92EA51411F1692D8A2D9F2D0E94D60332
:10085000C01AD10AD7FE03C0CC0EDD1EF60CA70CC1
:10086000F0CF6801D594C794E82EB81471F0692DC3
:100870008E2D9B2D0E94D603CC1ADD0AD7FE03C015
:10088000C00ED11EE70CB60CF0CF692DC701DF9169
:10089000CF911F910F91FF90EF90DF90CF90BF907D
:1008A000AF909F908F907F906F905F900C94D60345
:1008B000FF920F931F93CF93DF93D82FF92E162F0C
:1008C000C72F042F792F0E94DF03402F6D2F7C2F1D
:1008D0008D2F9F2D0E94DF03402F612F7C2F812FB2
:1008E0009F2D0E94DF03402F612F7C2F8D2F9C2F87
:1008F0000E94DF03DF91CF911F910F91FF90089528
:100900000E94BB00E0E0F1E0118A14860895DF92B6
:10091000EF92FF920F931F93CF93DF93D82E7B011B
:10092000162F0F2D8091020190910301D0E00197C5
:1009300099F50F2D0D1BE0910801F09109018181BE
:10094000C0E0D817B8F48091080190910901FC012A
:100950002281C21768F42C2F4D2F6D2D0E9446085E
:10096000682F8E2D8C0F902F0E94D603CF5FEBCF78
:10097000DF5FDFCFE0910801F09109018281C817A4
:1009800040F460E08E2D8C0F902F0E94D603CF5F35
:10099000F1CF015030C0DF5F1E2D1D0FE091080127
:1009A000F09109018181C0E0D817A8F48091080175
:1009B00090910901FC012281C21768F72C2F4D2F5D
:1009C0006D2D0E944608682F812F9F2D9C0F0E943D
:1009D000D603CF5FEBCFE0910801F091090182814E
:1009E000C81740F460E0812F9F2D9C0F0E94D60312
:1009F000CF5FF1CF1F5F812F902FDF91CF911F919C
:100A00000F91FF90EF90DF9008950F931F93CF9376
:100A10008C01C0E0F80181918F01882341F00E9490
:100A20008704BC01CF5F853014F477FFF3CF8C2FA0
:100A3000CF911F910F9108950F931F93CF93DF9341
:100A400010920C0140930D011092100100910801C9
:100A5000109109010115110509F449C09B01EC0130
:100A6000F8018181609106017091070190E00E9478
:100A7000570ABC0180910A0190910B010E94680AFB
:100A8000CB016AE070E00E94570A90930F018093B7
:100A90000E01309305012093040140E250E0BE01B5
:100AA00081E191E00E94D20A8091000190910101C0
:100AB0000197E9F4FE0101900020E9F73197BF01A9
:100AC0006C1B7D0BF80181818F5F0E944E0A815063
:100AD00020910201309103012130310511F095E0A0
:100AE00001C097E0981718F48EEF80931001DF9102
:100AF000CF911F910F910895209102013091030130
:100B00002130310511F070E001C076E04FEF60E078
:100B10000E941C05089590E09093070180930601C0
:100B2000089590930101809300010895909303012B
:100B3000809302010895909309018093080108951C
:100B400080918F03909190030196909390038093EE
:100B50008F0320910E0130910F018217930708F443
:100B600069C01092900310928F03E0910C01F0E0A5
:100B7000E050FF4F818981110AC080910D018230C0
:100B800008F458C0815080930D0110920C0180919F
:100B90000C0190E0FC01E050FF4F2189222309F471
:100BA00049C040910001509101012091100141156F
:100BB000510521F04130510599F024C0211122C086
:100BC00060910401709105018F5E9E4F0E940505A2
:100BD00090E0019790910C01890F80930C0112C055
:100BE000609104017091050140910201509103014F
:100BF0004130510511F4720F01C0621B8F5E9E4F90
:100C00000E940505809110018F5F80931001082ECE
:100C1000000C990BE0910801F0910901218130E06D
:100C2000281739073CF41092100180910C018F5F56
:100C300080930C010C94A700CF93DF93C0E0D1E028
:100C40009B878A870E94C30084E190E09F838E8304
:100C5000DF91CF910C9480041F93CF93DF93EC012D
:100C600010E08881181780F48B81882329F06A812D
:100C7000610F41E0898104C0898141E06A81810F6F
:100C80000E947D001F5FEDCFDF91CF911F910895EE
:100C9000CF93DF93CDB7DEB760970FB6F894DEBF82
:100CA0000FBECDBF88E0ECE5F3E0DE0119960190C0
:100CB0000D928A95E1F788E0FE013996DE011196E2
:100CC00001900D928A95E1F729813A814B815C81EF
:100CD0006D817E818F81988560960FB6F894DEBF16
:100CE0000FBECDBFDF91CF910895CF93DF93CDB7E6
:100CF000DEB760970FB6F894DEBF0FBECDBF88E0B9
:100D0000E4E6F3E0DE01199601900D928A95E1F791
:100D100088E0FE013996DE01119601900D928A95C8
:100D2000E1F729813A814B815C816D817E818F81E0
:100D3000988560960FB6F894DEBF0FBECDBFDF91E9
:100D4000CF910895CF93DF93CDB7DEB728970FB635
:100D5000F894DEBF0FBECDBF28960FB6F894DEBF65
:100D60000FBECDBFDF91CF910C947506CF93DF936B
:100D7000CDB7DEB760970FB6F894DEBF0FBECDBF1C
:100D800088E0ECE6F3E0DE01199601900D928A9579
:100D9000E1F788E0FE013996DE01119601900D928F
:100DA0008A95E1F729813A814B815C816D817E8151
:100DB0008F81988560960FB6F894DEBF0FBECDBFC9
:100DC000DF91CF9108950F931F93CF93DF938C0101
:100DD000662381F061E080E00E94C700C0E0D0E0BF
:100DE000C8010E942C060E94A7002196C530D1059B
:100DF000B9F7F0CFDF91CF911F910F91089561E086
:100E000080E00E94C70060E080E00C94C700109270
:100E1000800084E08093810010928500109284000D
:100E2000089580918400909185000895AC0180918F
:100E30008400909185009C01241B350B283E334093
:100E4000B0F708952091840030918500820F931FA0
:100E50000C941607CF93DF931F92CDB7DEB79E0198
:100E60002F5F3F4F45E064E773E00E947E0891E00A
:100E7000980F909331019981915097BD18BC95B509
:100E8000977039F095B5209131012770987F922B9A
:100E900095BD298130E0E82FF0E0EC58FC4FC90106
:100EA000008002C0880F991F0A94E2F70F90DF912B
:100EB000CF91089585B3897F85BB85B59091310128
:100EC0009770887F892B85BD089585B5887F85BDFE
:100ED000089585B382FB882780F90895009719F05B
:100EE000019741F0089584B58F736295660F660F80
:100EF000607C05C084B563706295607F8F7C682BD1
:100F000064BD0895009741F0019759F484B58E7F30
:100F100084BD84B5826002C084B58C7F84BD81E0CD
:100F2000089580E0089514BC15BC16BC18BC84B5A7
:100F30008E7F84BD84B5826084BD81E00895811177
:100F40000DC080919103882329F09091920381E054
:100F5000892702C080E090E08170089580E00895C4
:100F600081110BC080919103811103C08091920384
:100F700002C080E090E08170089580E008958111C2
:100F800003C080919103089580E00895811105C008
:100F90009091910381E08927089580E00895E1E927
:100FA000F3E08081818389B1881F8827881F80832F
:100FB000089557985F9808959C0121503109309306
:100FC000CD0081508093CC000895CF93DF93EC0146
:100FD000888199810E94DC078A819BEF980F943069
:100FE00008F088E098E19093C9008550880F8093BD
:100FF000CA0081E0DF91CF9108958091C800881FD9
:101000008827881F08958091C80085FB882780F96C
:1010100008958091C80086FB882780F90895CF93B2
:10102000C82F0E9403088823E1F38091C8008064E0
:101030008093C800C093CE00CF9108958091C800DE
:1010400087FFFCCF8091CE000895CF93DF93EC0112
:101050008991882319F00E940F08FACFDF91CF9170
:101060000895009789F0FC012381621B67FD09C088
:10107000062E000C770B248130E081E062177307A5
:101080000CF080E08170089580E00895CF93DF93A5
:10109000FC01892B79F18181481760F5928129172C
:1010A00048F59381A62FA91BA7FD24C00A2E000C8A
:1010B000BB0BC481D0E0AC17BD07E4F4622F0E94E3
:1010C0004E0A480F858190E0BD010E94570A06969E
:1010D000242F269526952695E80FF91FE20FF11D7E
:1010E000808190E0477002C0959587954A95E2F718
:1010F000817001C080E0DF91CF910895CF93DF939D
:10110000DC01FB0160E070E080E0C1E0D0E084172A
:10111000C9F09191BE01092E02C0660F771F0A9493
:10112000E2F76F5F7F4F769567956A0F7B1F02C06E
:10113000769567959A95E2F76F3F710519F010F073
:101140008F5FE5CFF9016083DF91CF9108952F92F2
:101150003F924F925F926F927F928F929F92AF9247
:10116000BF92CF92DF92EF92FF920F931F93CF9394
:10117000DF93CDB7DEB7CB59D1090FB6F894DEBFF8
:101180000FBECDBF0E9459000E94D2000E944806A7
:101190004E01E1E48E0E911CF401208331834283E1
:1011A000538364837583868397830E94A2062A965D
:1011B0002FAF2A972B963FAF2B972C964FAF2C979C
:1011C0002D965FAF2D972E966FAF2E972F967FAFF0
:1011D0002F9760968FAF609761969FAF61970E943F
:1011E000750662962FAF629763963FAF63976496DA
:1011F0004FAF649765965FAF659766966FAF6697DA
:1012000067967FAF679768968FAF689769969FAF2D
:1012100069970E94B6066A962FAF6A976B963FAFA2
:101220006B976C964FAF6C976D965FAF6D976E96A0
:101230006FAF6E976F967FAF6F97A0968FAFA097A7
:10124000A1969FAFA197CE010196CD56DF4F99830E
:101250008883C359D04080E4CD56DF4FE881F981BF
:10126000C359D04011928A95E9F79A828982C401C4
:1012700008969C838B8308969E838D83F8E18F0E5E
:10128000911C98868F823E018DE8680E711C85E066
:10129000F301982F11929A95E9F74E01E8E88E0E26
:1012A000911CF401982F11929A95E9F7BE016D57A0
:1012B0007F4FFB01982F11929A95E9F7AE014258A2
:1012C0005F4FFA01982F11929A95E9F79E012758DE
:1012D0003F4FF901982F11929A95E9F7DE01AC582A
:1012E000BF4FFD01982F11929A95E9F72E01EFE675
:1012F0004E0E511CF20111928A95E9F7A3967FAE2A
:101300006EAEA397A5969FAE8EAEA597A7967FAF1C
:101310006EAFA797A9965FAF4EAFA997AB963FAFB9
:101320002EAFAB97AD96BFAFAEAFAD97AF965FAEFA
:101330004EAEAF97CE018E569F4FCB56DF4F99835F
:101340008883C559D040CE56DF4F1882C259D0404D
:10135000CE56DF4F9881C259D040C756DF4F988391
:10136000C959D040E92FF0E0EE0FFF1F81E090E077
:101370008C0F9D1FE80FF91FAE014F595F4FBE0143
:101380006E567F4F808191810E940502FE01319649
:10139000C956DF4FF983E883C759D040C656DF4F9F
:1013A000F983E883CA59D040412C512C612C712C0F
:1013B000812C912C212C312CCE56DF4FA880C25984
:1013C000D0409201A301B401C101B12CC12CD12C98
:1013D000E12CF12C00E010E00E94A70A09F0E0F4F3
:1013E000C656DF4FE881F981CA59D0408191919169
:1013F000C656DF4FF983E883CA59D0400E942C06B5
:101400009201A301B401C101A1E00E949B0A29013C
:101410003A014B011C01D0CFC756DF4FF881C959A3
:10142000D040F43009F094CF4E018BE0880E911C2F
:1014300061E0C956DF4FE881F981C759D0408191F9
:101440009191C956DF4FF983E883C759D0400E9474
:10145000E306C956DF4F88819981C759D040881566
:10146000990531F780E090E0C556DF4F0FB6F8944C
:10147000DEBF0FBECDBFDF91CF911F910F91FF90C7
:10148000EF90DF90CF90BF90AF909F908F907F9024
:101490006F905F904F903F902F900895002480FDB3
:1014A000060E660F11F08695D1F7802D0895002461
:1014B000552704C0080E591F880F991F009729F05F
:1014C00076956795B8F37105B9F7802D952F089536
:1014D000AA1BBB1B51E107C0AA1FBB1FA617B7075A
:1014E00010F0A61BB70B881F991F5A95A9F7809576
:1014F0009095BC01CD010895052E97FB1EF4009434
:101500000E94930A57FD07D00E94B00A07FC03D03F
:101510004EF40C94930A50954095309521953F4F89
:101520004F4F5F4F089590958095709561957F4FCF
:101530008F4F9F4F08950024A7FD00942A0F301D60
:10154000401D501D601D701D801D901D08952A15A1
:101550003B054C055D056E057F05800791070895E5
:10156000A1E21A2EAA1BBB1BFD010DC0AA1FBB1FA7
:10157000EE1FFF1FA217B307E407F50720F0A21B19
:10158000B30BE40BF50B661F771F881F991F1A9486
:1015900069F760957095809590959B01AC01BD01B0
:1015A000CF010895FB01DC014150504048F001900B
:1015B0000D920020C9F701C01D9241505040E0F744
:0615C0000895F894FFCF2E
:1015C6000000000000001400000000000000000001
:1015D6000000000000000000000000000000000005
:1015E60000000000000000000000000000000000F5
:1015F600000157656C636F6D652120507573682017
:101606006120627574746F6E20746F20636F6E74E0
:10161600696E75650000010507205F050000000082
:1016260000C6186380014A290000004A7DF595022C
:10163600C417471F016322223206261551930586D9
:10164600080000008808210802822084880080544F
:1016560057090080904F0800000060880000800F46
:1016660000000000008C0100222202002EE63AA3B0
:1016760003C4104288032E4244C4072E4207A30324
:1016860088A9F411023F8407A3032E8617A3033FFC
:10169600424408012E4617A3032E460FA303C01883
:1016A600600C00C0186088008888200802007CF062
:1016B600010082208888002E424400012E425BAB46
:1016C6000344C51F63042FC617E3032E8610A20327
:1016D6002FC618E3033F8417C2073F841742002E24
:1016E600861EA30731C61F63048E1042880310426C
:1016F60018A3033195515204218410C20771D71AD9
:10170600630471D61C63042EC618A3032FC61742A2
:10171600002EC65893052FC61763042E0607A3038B
:101726009F1042080131C618A30331C618150131AE
:10173600C65AAB02312AA26204312A4208011F228C
:1017460022C207278410C20120088220000E2184AD
:1017560090034445000000000000C00782200000FE
:10176600000038E8A30721B419E30300B810A20368
:1017760010DA1CA30700B8F883034C8A238400C040
:10178600C7E8A10321B4196304041842880308308A
:1017960084920121A4324A02861042880300AC5A80
:1017A600630400B419630400B818A30300BCF8422C
:1017B6000000D8EC210400B419420000B8E0E003B0
:1017C600421C21240300C418B30500C418150100E7
:1017D600C45AAB02004445540400C4E8A103007C8B
:1017E60044C407881041080284104208018210444C
:1017F600880000888A0000034000800310038003ED
:101806002000400020001000080004000200010330
:10181600800340032000800310D00008040000016C
:1018260000000000030000010000000002000001AB
:0A18360000000000000306080A008D
:00000001FF
