:100000000C943A000C9457000C9457000C94570031
:100010000C9457000C9457000C9457000C94570004
:100020000C9457000C9457000C9457000C945700F4
:100030000C9457000C9457000C9457000C945700E4
:100040000C9457000C9457000C9457000C945700D4
:100050000C9457000C9457000C9457000C945700C4
:100060000C9457000C9457000C9457000C945700B4
:100070000C94570011241FBECFEFD4E0DEBFCDBFDC
:1000800013E0A0E0B1E0E8EAF9E102C005900D92CA
:10009000A237B107D9F723E0A2E7B3E001C01D9270
:1000A000AF38B207E1F70E94D8090C94D20C0C9437
:1000B00000000E94D40084EF91E00E948B030E9414
:1000C0007E000E948A030E94EE080E94E0000E94C7
:1000D000D10384EF91E00E94470688E391E00E94FB
:1000E000C60589E10E94B60581E090E00E94BC054A
:1000F00060E080E00E94D8000C94CC00E1E6F0E0E3
:1001000080E880831082A89584B7877F84BFE0E66B
:10011000F0E080818861808310820895853098F4B2
:10012000673088F421E030E001C0220F6A95EAF7D9
:10013000E82FF0E0ED58FC4F922F909580818923B5
:100140004111822B80830895853080F4673070F4EC
:1001500021E030E001C0220F6A95EAF7E82FF0E0D5
:10016000ED58FC4F8081282381E009F480E0089558
:1001700060917203E62FF0E0ED58FC4F80810E9401
:100180008202809172038F5F853018F4809372032E
:100190000895109272030895E3E7F3E0108211824C
:1001A00012821382148208950E9460020C94CC0083
:1001B000811105C0662311F0429A0895429808956E
:1001C0003A9A429A089560E080E00E94D80089E15E
:1001D00093E00E94A7050E941E030E94A0030E94B4
:1001E000E4080E94CB0584E00E94EC02882399F386
:1001F0000C94CC00CF93DF9361E070E083E290E059
:100200000E94840BEC018EE090E00E949B0BFC01AD
:1002100020E030E0AE01420F531F419351932B5F1A
:100220003F4F23323105B1F7DF91CF910895CF933E
:10023000DF93EC0180E00E94EC02882329F08A81A0
:10024000882311F081508A8382E00E94EC02882387
:10025000A1F08A819881282F30E0290F311D2730A5
:10026000310524F49B81992359F105C0863028F487
:100270009B81911102C08F5F8A8381E00E94EC0212
:10028000882399F08981843018F49B8191110BC0E7
:100290009881282F30E0290F311D253031052CF4AD
:1002A0009B81911102C08F5F898383E00E94EC02E1
:1002B000882349F08981882331F08150898303C0E4
:1002C0008630C8F2DACFDF91CF910895CF93DF93D4
:1002D000EC0184E00E94EC02882361F08B8188238A
:1002E00049F02981888190E0820F911D069714F4CE
:1002F0001B8211C084E00E94EC02882361F08B8194
:10030000811109C02A81888190E0820F911D089790
:1003100014F481E08B83DF91CF9108950F931F93A5
:10032000CF93DF93EC018B0180E00E94B408982FFB
:10033000882379F1488120E030E0241740F58B8153
:10034000EA815981882389F0B9016E0F711DFB0183
:10035000EE0FFF1FE00FF11F0190F081E02DE50F80
:10036000F11D8081813081F416C0F0E0EE0FFF1F97
:10037000E00FF11F0190F081E02DE20FF31FE50F78
:10038000F11D5081513041F02F5F3F4FD6CF892F63
:1003900003C081E001C080E0DF91CF911F910F91F8
:1003A0000895EF92FF920F931F93CF93DF937C01F9
:1003B0008B01EA01BA010E948E018823C9F180E015
:1003C0000E94B4088823A1F120E031E0D7018C918C
:1003D000281750F5D70113964C9113971296EC916C
:1003E0001297822F90E011966C91442371F0AC012A
:1003F0004E0F511DFA01EE0FFF1FEC0FFD1F019074
:10040000F081E02DE60FF11D0CC0F0E0EE0FFF1FB4
:10041000EC0FFD1F40815181460F511DFA01E80F7D
:10042000F91F30832F5FD2CFF80180818F5F8083E7
:10043000DF91CF911F910F91FF90EF9008950E944F
:10044000B8000C94CC00EF92FF920F931F93CF93C0
:10045000DF93EC018B017A010E941701CE010E940B
:100460006601A701B801CE010E94D1010E941E03BE
:100470000E94E408CE010E9457060E94B8000E9424
:10048000CC00F8018081843041F4DF91CF911F913D
:100490000F91FF90EF900C941F02DF91CF911F916D
:1004A0000F91FF90EF9008959C01FC01FF2784A11C
:1004B000832B84A395A1892F832B85A381E00895A5
:1004C000CF93DF93CAE3D3E0899199910E945402BC
:1004D00083E0C834D807C1F783E090E40E94540257
:1004E00080E090E80E94540283E090E10E94540270
:1004F00083E090E80E94540283E090E2DF91CF9184
:100500000C945402E0917803F0E0EE0FFF1FE05DE1
:10051000FC4F20813181F901FF2795A1932B95A3F1
:10052000EAE3F3E097E020813181D901BB2795967A
:100530002C91959780FF03C03095232301C0232B76
:1005400095962C938695915032969111ECCFE62F8B
:10055000F0E0EE0FFF1FE05DFC4F80819181FC0118
:10056000FF2785A19095892385A36093780308953B
:100570006230710519F170F46130710559F5FC01B3
:10058000FF2724A1392F3095922F932394A385A17F
:1005900083231DC06330710541F064307105D1F4CF
:1005A000FC01FF2784A1892B0FC0FC01FF2784A138
:1005B000892B84A385A19095892309C0FC01FF277D
:1005C00084A1292F2095822384A385A1892B85A32B
:1005D00081E0089580E00895E82FF0E0EE0FFF1F1E
:1005E000E758FC4F8081882321F0918181E08927A1
:1005F00002C080E090E081700895E82FF0E0EE0FF7
:10060000FF1FE758FC4F8081811102C0818102C029
:1006100080E090E081700895E82FF0E0EE0FFF1F7A
:10062000E758FC4F80810895E82FF0E0EE0FFF1FA0
:10063000E758FC4F908181E0892708957F928F923F
:100640009F92AF92BF92CF92DF92EF92FF920F9361
:100650001F93CF93DF93C9E7D3E058E4C52E53E04F
:10066000D52E66E0762E88818983F601019111915D
:100670006F015801BB24F50124A1E12EFF2485A1BF
:1006800090E08E219F2130E02E213F21232B31F05D
:10069000892B51F433E0832E912C0DC0892B41F42A
:1006A00088248394912C07C094E0892E912C03C058
:1006B00082E0882E912C64E070E0C8010E94B802AC
:1006C00062E070E0C8010E94B802872D8A95F1F7B8
:1006D000F50183A190E0E822F92281E0EF2809F0FA
:1006E00080E08883B401C8010E94B8022296F3E03A
:1006F000C338DF0709F0B7CFDF91CF911F910F917A
:10070000FF90EF90DF90CF90BF90AF909F908F9031
:100710007F9008950895CF93DF93EC010E941C0809
:100720009E0140E050E062E17AE780E090E00E94C4
:100730002E0B3093860320938503DF91CF9108958C
:1007400080918303909184030E942B08209183035E
:10075000309184038091850390918603820F931FCB
:10076000909384038093830308950C9412090C944E
:1007700033090C9418090C941E090C9424090E9446
:1007800024090E941E098823E1F38CE291E001977D
:10079000F1F70E94120981110C94B70308950C948B
:1007A0003A09CF93DF9300D01F92CDB7DEB7809187
:1007B000520390915303A091540389839A83AB838E
:1007C000509A589A0E94A8088FE690E00E943F082D
:1007D00081E090E00E94970861E070E081E090E0A5
:1007E0000E9483080E946F08CE0101960E94FA08B9
:1007F0000F900F900F90DF91CF910895692F0C9477
:10080000A40041E0611101C040E0692F0C948E000A
:100810000C9401045F926F927F928F929F92AF929D
:10082000BF92CF92DF92EF92FF920F931F93CF93DD
:10083000DF93562E872E942E5C01E62EF72EC62FC0
:10084000660FDD0BC81BD10987FDD395072F770FE6
:10085000110B091B110997FD1395D7FF03C07724CE
:100860007A9402C07724739417FF03C066246A94B5
:1008700002C066246394D7FF03C0D195C195D10906
:1008800017FF03C0119501951109C017D107A4F0F6
:100890006E01D594C794F92EA51411F1692D8A2DF6
:1008A0009F2D0E940104C01AD10AD7FE03C0CC0EAE
:1008B000DD1EF60CA70CF0CF6801D594C794E82E86
:1008C000B81471F0692D8E2D9B2D0E940104CC1A55
:1008D000DD0AD7FE03C0C00ED11EE70CB60CF0CF68
:1008E000692DC701DF91CF911F910F91FF90EF907C
:1008F000DF90CF90BF90AF909F908F907F906F9040
:100900005F900C940104FF920F931F93CF93DF939A
:10091000D82FF92E162FC72F042F792F0E940A04E3
:10092000402F6D2F7C2F8D2F9F2D0E940A04402F6A
:10093000612F7C2F812F9F2D0E940A04402F612F51
:100940007C2F8D2F9C2F0E940A04DF91CF911F9145
:100950000F91FF9008950E94CC00E0E0F1E0118A31
:1009600014860895DF92EF92FF920F931F93CF9317
:10097000DF93D82E7B01162F0F2D809102019091CD
:100980000301D0E0019799F50F2D0D1BE0910801AF
:10099000F09109018181C0E0D817B8F48091080175
:1009A00090910901FC012281C21768F42C2F4D2F70
:1009B0006D2D0E945B09682F8E2D8C0F902F0E9449
:1009C0000104CF5FEBCFDF5FDFCFE0910801F09153
:1009D00009018281C81740F460E08E2D8C0F902FA2
:1009E0000E940104CF5FF1CF015030C0DF5F1E2DA8
:1009F0001D0FE0910801F09109018181C0E0D81735
:100A0000A8F48091080190910901FC012281C2178C
:100A100068F72C2F4D2F6D2D0E945B09682F812FB9
:100A20009F2D9C0F0E940104CF5FEBCFE091080146
:100A3000F09109018281C81740F460E0812F9F2D59
:100A40009C0F0E940104CF5FF1CF1F5F812F902F79
:100A5000DF91CF911F910F91FF90EF90DF9008955C
:100A60000F931F93CF938C01C0E0F80181918F0108
:100A7000882341F00E94B204BC01CF5F853014F49A
:100A800077FFF3CF8C2FCF911F910F9108950F9384
:100A90001F93CF93DF9310920C0140930D0110929E
:100AA000100100910801109109010115110509F4C7
:100AB00049C09B01EC01F8018181609106017091B0
:100AC000070190E00E94090BBC0180910A019091FE
:100AD0000B010E941A0BCB016AE070E00E94090B27
:100AE00090930F0180930E01309305012093040130
:100AF00040E250E0BE0181E191E00E94C30C809190
:100B00000001909101010197E9F4FE01019000209C
:100B1000E9F73197BF016C1B7D0BF80181818F5F75
:100B20000E94000B8150209102013091030121307D
:100B3000310511F095E001C097E0981718F48EEF99
:100B400080931001DF91CF911F910F910895209113
:100B50000201309103012130310511F070E001C034
:100B600076E04FEF60E00E944705089590E0909393
:100B7000070180930601089590930101809300017D
:100B800008959093030180930201089590930901C1
:100B900080930801089580918703909188030196BE
:100BA000909388038093870320910E0130910F0169
:100BB0008217930708F469C0109288031092870384
:100BC000E0910C01F0E0E050FF4F818981110AC0F3
:100BD00080910D01823008F458C0815080930D013E
:100BE00010920C0180910C0190E0FC01E050FF4F4D
:100BF0002189222309F449C040910001509101014B
:100C0000209110014115510521F04130510599F015
:100C100024C0211122C060910401709105018F5EF2
:100C20009E4F0E94300590E0019790910C01890F32
:100C300080930C0112C060910401709105014091F4
:100C40000201509103014130510511F4720F01C0AE
:100C5000621B8F5E9E4F0E943005809110018F5F56
:100C600080931001082E000C990BE0910801F0917F
:100C70000901218130E0281739073CF41092100156
:100C800080910C018F5F80930C010C94B800CF937E
:100C9000DF93C0E0D1E09B878A870E94D40084E183
:100CA00090E09F838E83DF91CF910C94AB041F93D0
:100CB000CF93DF93EC0110E08881181780F48B81CB
:100CC000882329F06A81610F41E0898104C089810C
:100CD00041E06A81810F0E948E001F5FEDCFDF919E
:100CE000CF911F910895CF93DF93CDB7DEB7609773
:100CF0000FB6F894DEBF0FBECDBF88E0E5E5F3E0A8
:100D0000DE01199601900D928A95E1F788E0FE01C7
:100D10003996DE01119601900D928A95E1F72981AD
:100D20003A814B815C816D817E818F81988560964F
:100D30000FB6F894DEBF0FBECDBFDF91CF910895FF
:100D4000CF93DF93CDB7DEB760970FB6F894DEBFD1
:100D50000FBECDBF88E0EDE5F3E0DE01199601900E
:100D60000D928A95E1F788E0FE013996DE01119631
:100D700001900D928A95E1F729813A814B815C813E
:100D80006D817E818F81988560960FB6F894DEBF65
:100D90000FBECDBFDF91CF910895CF93DF93CDB735
:100DA000DEB728970FB6F894DEBF0FBECDBF2896EA
:100DB0000FB6F894DEBF0FBECDBFDF91CF910C947C
:100DC000A006CF93DF93CDB7DEB760970FB6F89448
:100DD000DEBF0FBECDBF88E0E5E6F3E0DE01199689
:100DE00001900D928A95E1F788E0FE013996DE01C7
:100DF000119601900D928A95E1F729813A814B81F4
:100E00005C816D817E818F81988560960FB6F894A4
:100E1000DEBF0FBECDBFDF91CF910895CF93DF939B
:100E200061E070E083E290E00E94840BEC018EE0D0
:100E300090E00E949B0BFC0120E030E0AE01420FED
:100E4000531F419351932B5F3F4F23323105B1F72D
:100E5000DF91CF91089541E0FC01618180810C9484
:100E60008E000895CF93DF93EC0182E00E94EC02A4
:100E7000882329F08981863010F48F5F898380E090
:100E80000E94EC02882329F08981882311F0815087
:100E9000898381E00E94EC02882329F088818430D4
:100EA00010F48F5F888383E00E94EC02882329F08E
:100EB0008881882311F081508883DF91CF91089534
:100EC0000F931F93CF93DF938C01EB0180E00E947F
:100ED000B408882391F0E981F0E0EE0FFF1FE00FE6
:100EE000F11F88810190F081E02DE80FF11D81E074
:100EF0009081913019F480E001C081E0DF91CF91C1
:100F00001F910F9108950F931F93CF93DF938C013F
:100F1000EB0180E00E94B4088823F9F0BE01C8010B
:100F20000E9460078823C9F0E981F0E0EE0FFF1FFF
:100F3000E00FF11F88810190F081E02DE80FF11D95
:100F400081E080838A819B81AC81BD810196A11D56
:100F5000B11D8A839B83AC83BD83DF91CF911F91A9
:100F60000F9108950F931F93CF93DF938C01EB01A3
:100F7000CB010E943207CE010E942B07BE01C8019F
:100F80000E94830780E0DF91CF911F910F91089518
:100F90000E94B8000C94CC00DC01ED91FC918081A2
:100FA000813029F441E060E080E00E948E000C94E2
:100FB000C807CF93DF93EB012223B1F0BA01CE0132
:100FC0000E94B2070E941E030E94E408CE010E9404
:100FD000CC07EC81FD818181813031F441E062E018
:100FE000DF91CF910C948E00DF91CF9108950F93F4
:100FF0001F93CF93DF938C01662381F061E080E043
:101000000E94D800C0E0D0E0C8010E9457060E94AC
:10101000B8002196C530D105B9F7F0CFDF91CF9157
:101020001F910F910895089561E080E00E94D8001B
:1010300060E080E00C94D8001092800084E08093FF
:1010400081001092850010928400089580918400A0
:10105000909185000895AC01809184009091850065
:101060009C01241B350B283E3340B0F70895209196
:10107000840030918500820F931F0C942B08CF932E
:10108000DF931F92CDB7DEB79E012F5F3F4F45E044
:101090006DE673E00E94930991E0980F90933101FF
:1010A0009981915097BD18BC95B5977039F095B559
:1010B000209131012770987F922B95BD298130E0D6
:1010C000E82FF0E0E359FC4FC901008002C0880F0F
:1010D000991F0A94E2F70F90DF91CF91089585B39D
:1010E000897F85BB85B5909131019770887F892B69
:1010F00085BD089585B5887F85BD089585B382FB3C
:10110000882780F90895009719F0019741F0089514
:1011100084B58F736295660F660F607C05C084B5D9
:1011200063706295607F8F7C682B64BD0895009723
:1011300041F0019759F484B58E7F84BD84B58260F7
:1011400002C084B58C7F84BD81E0089580E008955D
:1011500014BC15BC16BC18BC84B58E7F84BD84B588
:10116000826084BD81E0089581110DC08091890362
:10117000882329F090918A0381E0892702C080E0CA
:1011800090E08170089580E0089581110BC08091F6
:101190008903811103C080918A0302C080E090E03E
:1011A0008170089580E00895811103C080918903C2
:1011B000089580E00895811105C09091890381E030
:1011C0008927089580E00895E9E8F3E0808181832C
:1011D00089B1881F8827881F8083089557985F9852
:1011E00008959C01215031093093CD0081508093A6
:1011F000CC000895CF93DF93EC01888199810E9400
:10120000F1088A819BEF980F943008F088E098E10C
:101210009093C9008550880F8093CA0081E0DF91C8
:10122000CF9108958091C800881F8827881F08954E
:101230008091C80085FB882780F908958091C800B7
:1012400086FB882780F90895CF93C82F0E9418093C
:101250008823E1F38091C80080648093C800C09324
:10126000CE00CF9108958091C80087FFFCCF809178
:10127000CE000895CF93DF93EC018991882319F074
:101280000E942409FACFDF91CF910895009789F049
:10129000FC012381621B67FD09C0062E000C770B41
:1012A000248130E081E0621773070CF080E08170E8
:1012B000089580E00895CF93DF93FC01892B79F1A5
:1012C0008181481760F59281291748F59381A62FEF
:1012D000A91BA7FD24C00A2E000CBB0BC481D0E0C3
:1012E000AC17BD07E4F4622F0E94000B480F858104
:1012F00090E0BD010E94090B0696242F26952695A5
:101300002695E80FF91FE20FF11D808190E04770EC
:1013100002C0959587954A95E2F7817001C080E0FB
:10132000DF91CF910895CF93DF93DC01FB0160E063
:1013300070E080E0C1E0D0E08417C9F09191BE0177
:10134000092E02C0660F771F0A94E2F76F5F7F4F86
:10135000769567956A0F7B1F02C0769567959A957B
:10136000E2F76F3F710519F010F08F5FE5CFF901DB
:101370006083DF91CF9108950E94B503882339F0EF
:101380000E94B703813291F40E94BF030FC00E94F4
:10139000A00381E20E94BF030E94B5038823B9F332
:1013A0000E94B703813299F781E0089580E00895A3
:1013B0002F923F924F925F926F927F928F929F9265
:1013C000AF92BF92CF92DF92EF92FF920F931F9353
:1013D000CF93DF93CDB7DEB7CA56D1090FB6F894D5
:1013E000DEBF0FBECDBF0E9459000E94E3000E94E5
:1013F00073064E01E1E48E0E911CF40120833183CB
:101400004283538364837583868397830E94CD06CA
:101410002A962FAF2A972B963FAF2B972C964FAF3C
:101420002C972D965FAF2D972E966FAF2E972F96F8
:101430007FAF2F9760968FAF609761969FAF619750
:101440000E94A00662962FAF629763963FAF6397A4
:1014500064964FAF649765965FAF659766966FAF7A
:10146000669767967FAF679768968FAF689769961C
:101470009FAF69970E94E1066A962FAF6A976B96B5
:101480003FAF6B976C964FAF6C976D965FAF6D9754
:101490006E966FAF6E976F967FAF6F97A0968FAF78
:1014A000A097A1969FAFA197CE010196A4969FAF5A
:1014B0008EAFA49780E4A496EEADFFADA4971192F1
:1014C0008A95E9F79A828982C40108969C838B8366
:1014D00008969E838D83F8E18F0E911C98868F82EB
:1014E0000E94FA00AB969FAF8EAFAB970E940E079B
:1014F000CE018F599F4FA6969FAF8EAFA697A2960B
:101500001FAEA297A2969FADA297A7969FAFA7974F
:10151000E92FF0E0EE0FFF1F81E090E08C0F9D1FA0
:10152000E80FF91FAB964EAD5FADAB97BE016F599B
:101530007F4F808191810E942302FE013196A996FE
:10154000FFAFEEAFA997412C512C612C712C812C4F
:10155000912C212C312CA296AFACA2979201A30121
:10156000B401C101B12CC12CD12CE12CF12C00E033
:1015700010E00E94590B09F0C0F4A996EEADFFAD42
:10158000A99781919191A996FFAFEEAFA9970E947B
:1015900057069201A301B401C101A1E00E944D0BC5
:1015A00029013A014B011C01D6CFA796FFADA797A1
:1015B000F43009F0A7CF0E94BC09892B29F061E023
:1015C00080E00E94D800FFCF80E090E0C659DF4F56
:1015D0000FB6F894DEBF0FBECDBFDF91CF911F9144
:1015E0000F91FF90EF90DF90CF90BF90AF909F90C2
:1015F0008F907F906F905F904F903F902F900895C5
:10160000002480FD060E660F11F08695D1F7802D1F
:1016100008950024552704C0080E591F880F991FEC
:10162000009729F076956795B8F37105B9F7802D85
:10163000952F0895AA1BBB1B51E107C0AA1FBB1F12
:10164000A617B70710F0A61BB70B881F991F5A954E
:10165000A9F780959095BC01CD010895052E97FBC3
:101660001EF400940E94450B57FD07D00E94620BA8
:1016700007FC03D04EF40C94450B509540953095E3
:1016800021953F4F4F4F5F4F0895909580957095EE
:1016900061957F4F8F4F9F4F08950024A7FD0094C1
:1016A0002A0F301D401D501D601D701D801D901D96
:1016B00008952A153B054C055D056E057F058007DD
:1016C00091070895A1E21A2EAA1BBB1BFD010DC0B4
:1016D000AA1FBB1FEE1FFF1FA217B307E407F507E2
:1016E00020F0A21BB30BE40BF50B661F771F881FBE
:1016F000991F1A9469F760957095809590959B0154
:10170000AC01BD01CF0108950F931F93CF93DF93D9
:101710000E94090B8C010E949B0BEC01009729F0A1
:10172000A80160E070E00E94BC0CCE01DF91CF9177
:101730001F910F9108950F931F93CF93DF938230E2
:10174000910510F482E090E0E0918D03F0918E031A
:1017500020E030E0A0E0B0E0309719F14081518105
:101760000281138148175907C8F08417950769F457
:10177000109731F012960C93129713961C9327C072
:1017800000938D0310938E0322C02115310519F0AB
:101790004217530718F49A01BD01EF01DF01F80168
:1017A000DBCF21153105F9F0281B390B2430310529
:1017B00080F48A819B816115710521F0FB0193837F
:1017C000828304C090938E0380938D03FE01329632
:1017D00044C0FE01E20FF31F81939193225031091F
:1017E000398328833AC020918B0330918C03232BBB
:1017F00041F4209134013091350130938C032093D2
:101800008B0320913201309133012115310541F4D0
:101810002DB73EB74091360150913701241B350B4F
:10182000E0918B03F0918C03E217F307A0F42E1BD9
:101830003F0B2817390778F0AC014E5F5F4F241734
:10184000350748F04E0F5F1F50938C0340938B0376
:101850008193919302C0E0E0F0E0CF01DF91CF915E
:101860001F910F910895CF93DF93009709F481C0E2
:10187000FC01329713821282A0918D03B0918E03E6
:10188000109781F420813181820F931F20918B0367
:1018900030918C032817390751F5F0938C03E093AE
:1018A0008B0367C0ED0120E030E0CE17DF0740F486
:1018B0004A815B819E0141155105F1F0EA01F5CFA6
:1018C000D383C28340815181840F951FC817D907E4
:1018D00059F488819981840F951F029691838083A2
:1018E0008A819B81938382832115310529F4F093AA
:1018F0008E03E0938D033DC0E901FB83EA834991A8
:101900005991C40FD51FEC17FD0761F480819181B7
:10191000840F951F0296E9019983888382819381C0
:101920009B838A83E0E0F0E012968D919C9113975F
:10193000009719F0FD01DC01F7CF8D919C91119773
:101940009D012E5F3F4F820F931F20918B0330919B
:101950008C032817390769F4309729F410928E0305
:1019600010928D0302C013821282B0938C03A09355
:101970008B03DF91CF910895DC0101C06D9341503D
:101980005040E0F70895FB01DC014150504048F021
:1019900001900D920020C9F701C01D9241505040A6
:0819A000E0F70895F894FFCF71
:1019A800000000000000140000000000000000001B
:1019B800000000000000000000000000000000001F
:1019C800000000000000000000000000000000000F
:1019D800000100008F032000010507205F050000BB
:1019E800000000C6186380014A290000004A7DF5FE
:1019F8009502C417471F0163222232062615519308
:101A080005860800000088082108028220848800D2
:101A1800805457090080904F08000000608800003B
:101A2800800F00000000008C0100222202002EE638
:101A38003AA303C4104288032E4244C4072E420727
:101A4800A30388A9F411023F8407A3032E8617A3D2
:101A5800033F424408012E4617A3032E460FA30353
:101A6800C018600C00C01860880088882008020030
:101A78007CF0010082208888002E424400012E421A
:101A88005BAB0344C51F63042FC617E3032E861000
:101A9800A2032FC618E3033F8417C2073F841742E7
:101AA800002E861EA30731C61F63048E10428803CA
:101AB800104218A3033195515204218410C20771B2
:101AC800D71A630471D61C63042EC618A3032FC645
:101AD8001742002EC65893052FC61763042E060713
:101AE800A3039F1042080131C618A30331C6181575
:101AF8000131C65AAB02312AA26204312A420801D6
:101B08001F2222C207278410C20120088220000E4B
:101B1800218490034445000000000000C007822093
:101B28000000000038E8A30721B419E30300B81047
:101B3800A20310DA1CA30700B8F883034C8A238495
:101B480000C0C7E8A10321B419630404184288033C
:101B5800083084920121A4324A0286104288030088
:101B6800AC5A630400B419630400B818A30300BC9A
:101B7800F8420000D8EC210400B419420000B8E093
:101B8800E003421C21240300C418B30500C418153F
:101B98000100C45AAB02004445540400C4E8A10340
:101BA800007C44C40788104108028410420801825E
:101BB8001044880000888A00004869212050757305
:101BC80068204E415620746F20737461727400004F
:101BD8000340008003100380032000400020001011
:101BE8000008000400020001038003400320008075
:101BF8000310D000080400000100000000030000EA
:101C080001000000000200000100000000000306BF
:021C1800080AB8
:00000001FF
