:100000000C943A000C9457000C9457000C94570031
:100010000C9457000C9457000C9457000C94570004
:100020000C9457000C9457000C9457000C945700F4
:100030000C9457000C9457000C9457000C945700E4
:100040000C9457000C9457000C9457000C945700D4
:100050000C9457000C9457000C9457000C945700C4
:100060000C9457000C9457000C9457000C945700B4
:100070000C94570011241FBECFEFD4E0DEBFCDBFDC
:1000800013E0A0E0B1E0ECE4F9E102C005900D92CC
:10009000A237B107D9F723E0A2E7B3E001C01D9270
:1000A000AF38B207E1F70E94A7090C94A40C0C9496
:1000B00000000E94D40084EF91E00E948A030E9415
:1000C0007E000E9489030E94DF080E94E0000E94D7
:1000D000D00384EF91E00E94570688E391E00E94EC
:1000E000DA0589E10E94CA0581E090E00E94D0050E
:1000F00060E080E00E94D8000C94CC00E1E6F0E0E3
:1001000080E880831082A89584B7877F84BFE0E66B
:10011000F0E080818861808310820895853098F4B2
:10012000673088F421E030E001C0220F6A95EAF7D9
:10013000E82FF0E0ED58FC4F822F809590818923C5
:100140004111822B80830895853080F4673070F4EC
:10015000E82FF0E0ED58FC4F81E090E001C0880FFF
:100160006A95EAF79081982381E009F480E0089588
:1001700060917203E62FF0E0ED58FC4F80810E9401
:100180008702809172038F5F853018F48093720329
:100190000895109272030895E3E7F3E0108211824C
:1001A00012821382148208950E9465020C94CC007E
:1001B000811105C0662311F0429A0895429808956E
:1001C0003A9A429A089560E080E00E94D80089E15E
:1001D00093E00E94BD050E9420030E949F030E949D
:1001E000D5080E94DF0584E00E94F002882399F37D
:1001F0000C94CC00CF93DF9361E070E083E290E059
:100200000E944F0BD82FC92F8EE090E00E94660B02
:100210009C014D2F5C2FFC010E96419351934B5F37
:100220005F4FE817F907C9F7C901DF91CF9108952A
:10023000CF93DF93EC0180E00E94F002882329F045
:100240008A81882311F081508A8382E00E94F00223
:10025000882399F08A812881280F3327331F27307C
:10026000310534F49B81992369F18F5F8A8305C03E
:10027000863018F49B819923C1F381E00E94F0023B
:10028000882399F08981843030F49B81992319F077
:100290008F5F89830AC02881280F3327331F2530B9
:1002A00031051CF49B81992399F383E00E94F002AD
:1002B000882329F08981882311F081508983DF9177
:1002C000CF910895863088F2D8CFCF93DF93EC0199
:1002D00084E00E94F002882371F08B81882359F01A
:1002E00089819881890F9927991F069724F41B8289
:1002F000DF91CF91089584E00E94F0028823C1F33A
:100300008B818111F5CF8A819881890F9927991F57
:10031000089774F781E08B83EBCF0F931F93CF93F4
:10032000DF938C01EB0180E00E94A708982F81E009
:10033000992339F0F801A08150E040E04A1730F0ED
:10034000892FDF91CF911F910F910895F80183813B
:100350002281618130E070E0882389F0F901E40FA7
:10036000F51FEE0FFF1FEC0FFD1F20813181620F83
:10037000731FFB018081813089F480E0E2CF220F7E
:10038000331FFE01E20FF31F20813181240F351F3F
:10039000620F731FFB012081213099F24F5F5F4F85
:1003A000CDCFEF92FF920F931F93CF93DF937C01FA
:1003B0008B01EA01BA010E948D01882329F080E0B7
:1003C0000E94A70881113AC0DF91CF911F910F9130
:1003D000FF90EF900895D70112969C911297119675
:1003E000EC911197642F70E01396FC91892F90E0A7
:1003F0002E2F30E0FF23B9F0FC01E60FF71FEE0FC0
:10040000FF1FEC0FFD1F0190F081E02DE20FF31FA5
:1004100050834F5FF70180814817E8F2D8018C9133
:100420008F5F8C93D1CF880F991FFE01E80FF91FC2
:100430000190F081E02DE60FF71FE8CF40E051E09A
:10044000E9CF0E94B8000C94CC00EF92FF920F937A
:100450001F93CF93DF93D82FC92F8B017A010E946E
:1004600018018D2F9C2F0E946501A701B8018D2FC7
:100470009C2F0E94D1010E9420030E94D5088D2F3D
:100480009C2F0E9467060E94B8000E94CC00F801D1
:100490008081843041F4DF91CF911F910F91FF90C3
:1004A000EF900C942102DF91CF911F910F91FF905B
:1004B000EF9008959C01FC01FF2784A1832B84A366
:1004C00085A1832B85A381E00895CF93DF93CAE3B1
:1004D000D3E0899199910E945A0283E0C834D807E9
:1004E000C1F783E090E40E945A0280E090E80E9405
:1004F0005A0283E090E10E945A0283E090E80E9451
:100500005A0283E090E2DF91CF910C945A02E0917D
:100510007803F0E0EE0FFF1FE05DFC4F208131819A
:10052000F901FF2795A1932B95A3AAE3B3E02D91A1
:100530003D91F901FF2780FF1CC025A1932F9095C5
:10054000922395A3869593E0A834B90781F7E62F07
:10055000F0E0EE0FFF1FE05DFC4F20813181F901DB
:10056000FF2795A1832F8095892385A36093780326
:10057000089595A1932BE5CF9C0163307105A1F0FF
:1005800040F461307105E1F06230710511F180E0F5
:10059000089564307105D9F7F901FF2784A1832BF1
:1005A00084A385A1832B09C0F901FF2784A1832B94
:1005B00084A395A1832F8095892385A381E0089545
:1005C000F901FF2794A1832F8095982394A395A1E7
:1005D000F3CFF901FF2794A1832F80958923E0CFE2
:1005E000E82FF0E0EE0FFF1FE758FC4F80818823D3
:1005F00029F0818191E089278170089580E0FCCF06
:10060000E82FF0E0EE0FFF1FE758FC4F80818111CB
:1006100003C081818170089580E0FCCFE82FF0E075
:10062000EE0FFF1FE758FC4F80810895E82FF0E0A0
:10063000EE0FFF1FE758FC4F908181E08927089556
:100640007F928F929F92AF92BF92CF92DF92EF9262
:10065000FF920F931F93CF93DF93C9E7D3E058E442
:10066000C52E53E0D52E66E0762E88818983F6016B
:10067000019111916F015801BB24F50124A1E12ED4
:10068000FF2485A190E08E219F2130E02E213F2183
:10069000232BB1F133E0832E912C892B19F094E0B8
:1006A000892E912C64E070E0C8010E94BC0262E0D7
:1006B00070E0C8010E94BC02872D8A95F1F7F50110
:1006C00083A190E0E822F92281E0EF2809F080E0A0
:1006D0008883B401C8010E94BC022296F3E0C338AB
:1006E000DF0719F6DF91CF911F910F91FF90EF90E7
:1006F000DF90CF90BF90AF909F908F907F900895A4
:1007000088248394912C892B69F282E0882E912C85
:10071000C9CF0895CF93DF93EC010E9411089E0189
:1007200050E040E062E17AE780E090E00E94F90A60
:100730003093860320938503DF91CF9108958091B4
:100740008303909184030E942008809183039091F9
:1007500084032091850330918603820F931F909329
:1007600084038093830308950C9402090C94230955
:100770000C9408090C940E090C9414090E94140995
:100780000E940E098823E1F38CE291E00197F1F7D2
:100790000E94020981110C94B60308950C942A0951
:1007A000CF93DF9300D00F92CDB7DEB78091520385
:1007B00090915303A091540389839A83AB83509AF9
:1007C000589A0E949B088FE690E00E94340881E0CE
:1007D00090E00E948A0861E070E081E090E00E9471
:1007E00077080E946308CE0101960E94EA080F90E4
:1007F0000F900F90DF91CF910895692F0C94A40072
:1008000041E0611101C040E0692F0C948E000C940E
:1008100000045F926F927F928F929F92AF92BF92ED
:10082000CF92DF92EF92FF920F931F93CF93DF93BC
:10083000862E772E942E682E592EB62EA72E062E93
:10084000000C770BE82F082E000CFF0B8B010E1B02
:100850001F0B272D072C000C330B492F092E000CE2
:10086000550BE901C41BD50B17FF59C0DD24DA94E1
:10087000D7FD02C0DD24D3948F01061B170BCC24B7
:10088000CA94D7FF03C0EA01C21BD30B0C171D0784
:100890006CF1780117FF03C08FEFE81AF80AF5949E
:1008A000E794A92E681014C0692D8B2D9A2DDF9125
:1008B000CF911F910F91FF90EF90DF90CF90BF905D
:1008C000AF909F908F907F906F905F900C940004FA
:1008D000692D862D9A2D0E940004EC1AFD0AF7FE60
:1008E00003C0E00EF11EAD0C6C0CDCCF7E01D7FF17
:1008F00003C09FEFE91AF90AF594E794B82E57144C
:1009000099F2692D8B2D952D0E940004E01AF10AB1
:10091000F7FE03C0EC0EFD1EBC0C5D0CF0CFCC242A
:10092000C394DD24DA94D7FDAECFDD24D394AECFCB
:10093000FF920F931F93CF93DF93D82FF92E162F8B
:10094000C72F042F792F0E940904402F6D2F7C2F71
:100950008D2F9F2D0E940904402F612F7C2F812F06
:100960009F2D0E940904402F612F7C2F8D2F9C2FDB
:10097000DF91CF911F910F91FF900C9409040E9479
:10098000CC00E0E0F1E0118A14860895DF92EF9246
:10099000FF920F931F93CF93DF93D82E7B01C62F27
:1009A0000F2D8091020190910301D0E0019751F148
:1009B000CE2DCD0FE0910801F09109018181D8176A
:1009C00008F45CC0D0E0E0910801F0910901828157
:1009D000D81708F455C0CF5F27C0212F4D2F6D2D9C
:1009E0000E944B09682F8E2D810F902F0E940004CA
:1009F0001F5F8091080190910901FC01228112176B
:100A000060F3DF5F0F2D0D1BE0910801F0910901EC
:100A10008181D81798F0D0E0E0910801F0910901A8
:100A20008281D81768F001508C2F902FDF91CF91E1
:100A30001F910F91FF90EF90DF90089510E0D9CFB4
:100A400060E08E2D8D0F902F0E940004DF5FE4CFB9
:100A5000212F4D2F6D2D0E944B09682F8C2F9F2D1C
:100A6000910F0E9400041F5F80910801909109017D
:100A7000FC012281121760F3DF5F9ACF10E0F4CF00
:100A800060E08C2F9F2D9D0F0E940004DF5F9BCFA5
:100A90001F93CF93DF93EC0110E08991882341F0FD
:100AA0000E94C604BC011F5F853014F477FFF5CFA8
:100AB000812FDF91CF911F9108950F931F93CF93B3
:100AC000DF93EC01362F272F10920C0140930D017C
:100AD00010921001009108011091090101151105F2
:100AE00009F446C0F8018181609106017091070107
:100AF00090E00E94D40ABC0180910A0190910B0100
:100B00000E94E50ACB016AE070E00E94D40A90934B
:100B10000F0180930E01309304012093050140E200
:100B200050E0BE0181E191E00E94950C80910001AE
:100B3000909101010197E1F4FE0101900020E9F795
:100B40003197BF016C1B7D0BF80181818F5F0E9483
:100B5000CB0A8150209102013091030195E02130B0
:100B6000310509F497E0981718F48EEF809310017F
:100B7000DF91CF911F910F91089520910201309143
:100B8000030170E02130310509F476E04FEF60E0B9
:100B90000C945D0590E09093070180930601089501
:100BA0009093010180930001089590930301809335
:100BB000020108959093090180930801089580919E
:100BC000870390918803019690938803809387030D
:100BD00020910E0130910F018217930708F441C054
:100BE0001092880310928703E0910C01F0E0E0502E
:100BF000FF4F8189811109C080910D01823088F1F8
:100C0000815080930D0110920C0180910C0190E0B5
:100C1000FC01E050FF4F2189222319F1409100018E
:100C2000509101012091100141155105E1F0413031
:100C3000510551F1809110018F5F80931001082EB2
:100C4000000C990BE0910801F0910901218128170E
:100C500019063CF41092100180910C018F5F809373
:100C60000C010C94B8002111E5CF60910401709142
:100C700005018F5E9E4F0E94480590910C01915096
:100C8000980F90930C01D6CF6091040170910501EB
:100C900040910201509103014130510531F4720F2E
:100CA0008F5E9E4F0E944805C5CF621BF9CFCF9340
:100CB000DF93C0E0D1E09B878A870E94D40084E163
:100CC00090E09F838E83DF91CF910C94BF041F939C
:100CD000CF93DF93EC0110E08881181720F0DF91AB
:100CE000CF911F9108956A8189819B81992331F069
:100CF000610F41E00E948E001F5FEECF41E0810F47
:100D0000F9CFCF93DF93CDB7DEB760970FB6F894E6
:100D1000DEBF0FBECDBF88E0E5E5F3E0DE0119964A
:100D200001900D928A95E1F788E0FE013996DE0187
:100D3000119601900D928A95E1F729813A814B81B4
:100D40005C816D817E818F81988560960FB6F89465
:100D5000DEBF0FBECDBFDF91CF910895CF93DF935C
:100D6000CDB7DEB760970FB6F894DEBF0FBECDBF2C
:100D700088E0EDE5F3E0DE01199601900D928A9589
:100D8000E1F788E0FE013996DE01119601900D929F
:100D90008A95E1F729813A814B815C816D817E8161
:100DA0008F81988560960FB6F894DEBF0FBECDBFD9
:100DB000DF91CF910895CF93DF93CDB7DEB728971A
:100DC0000FB6F894DEBF0FBECDBF28960FB6F894CD
:100DD000DEBF0FBECDBFDF91CF910C94AE06CF9397
:100DE000DF93CDB7DEB760970FB6F894DEBF0FBEC6
:100DF000CDBF88E0E5E6F3E0DE01199601900D92A3
:100E00008A95E1F788E0FE013996DE01119601909E
:100E10000D928A95E1F729813A814B815C816D8140
:100E20007E818F81988560960FB6F894DEBF0FBEE5
:100E3000CDBFDF91CF910895CF93DF9361E070E054
:100E400083E290E00E944F0BD82FC92F8EE090E0F4
:100E50000E94660B9C014D2F5C2FFC010E96419366
:100E600051934B5F5F4FE817F907C9F7C901DF914D
:100E7000CF910895FC0141E0618180810C948E0046
:100E8000CF93DF93EC0182E00E94F002882329F0E7
:100E90008981863010F48F5F898380E00E94F002A0
:100EA000882329F08981882311F08150898381E08A
:100EB0000E94F002882329F08881843010F48F5F2B
:100EC000888383E00E94F002882329F088818823A8
:100ED00011F081508883DF91CF9108950F931F9374
:100EE000CF93DF93EC018B0180E00E94A708882359
:100EF000C9F0D80111968C91119790E0880F991F35
:100F0000C80FD91FEC9188819981E80FF92FF11D45
:100F100081E09081913009F480E0DF91CF911F91C1
:100F20000F91089581E0F9CF0F931F93CF93DF9333
:100F3000EC018B0180E00E94A7088823B9F0B8017A
:100F4000CE010E946E07882389F0D80111968C91FA
:100F5000119790E0880F991FC80FD91FEC918881D5
:100F60009981E80FF92FF11D81E08083DF91CF9106
:100F70001F910F9108950F931F93CF93DF938C01CF
:100F8000D62FC72F862F972F0E9440078D2F9C2F7B
:100F90000E943A070E94B8000E94CC006D2F7C2F5F
:100FA000C8010E94940780E0DF91CF911F910F91BB
:100FB0000895CB01BA01222331F00E94BB070E94A1
:100FC00020030C94D5080895EF92FF921F93CF93BE
:100FD000DF93D82F192FC62FC11106C0DF91CF91F3
:100FE0001F91FF90EF90089561E080E00E94D8008B
:100FF000F12CE12C8D2F912F0E9467060E94B800E2
:101000008FEFE81AF80A85E0E816F10499F7E4CFC3
:10101000089561E080E00E94D80060E080E00C94D8
:10102000D8001092800084E08093810010928500A7
:101030001092840008958091840090918500089515
:101040009C018091840090918500AC01421B530B60
:10105000483E5340B0F708952091840030918500B8
:10106000820F931F0C942008CF93DF930F92CDB77C
:10107000DEB79E012F5F3F4F45E06DE673E00E94B3
:101080007F09E82F81E08E0F8093310189818150A3
:1010900087BD18BC85B5877039F095B58091310151
:1010A0008770987F892B85BD898190E0F0E0E359B6
:1010B000FC4F208102C0880F991F2A95E2F70F90FC
:1010C000DF91CF91089585B3897F85BB95B58091D8
:1010D00031018770987F892B85BD089585B5887FFC
:1010E00085BD089585B382FB882780F90895009710
:1010F00019F0019751F0089584B58F736295660FCA
:10110000660F607C682B64BD089584B5629560733A
:101110008F7CF8CF009721F0019739F080E0089597
:1011200084B58C7F84BD81E0089584B58E7F84BDB5
:1011300084B58260F7CF14BC15BC16BC18BC84B54E
:101140008E7F84BD84B5826084BD81E00895811165
:101150000CC080918903882331F080918A0391E04B
:1011600089278170089580E0FCCF80E00895811187
:101170000AC080918903811104C080918A03817023
:10118000089580E0FCCF80E00895811103C0809134
:101190008903089580E00895811105C08091890335
:1011A00091E08927089580E00895E9E8F3E08081DF
:1011B000818389B1881F8827881F80830895579865
:1011C0005F9808959C0101979093CD002150209342
:1011D000CC000895CF93DF93EC01888199810E9420
:1011E000E2088A819BEF980F943008F088E098E13C
:1011F0009093C9008550880F8093CA0081E0DF91E9
:10120000CF9108958091C800881F8827881F08956E
:101210008091C80085FB882780F908958091C800D7
:1012200086FB882780F90895CF93C82F0E9408096C
:101230008823E1F38091C80080648093C800C09344
:10124000CE00CF9108958091C80087FFFCCF809198
:10125000CE000895CF93DF93EC018991811103C0F3
:10126000DF91CF9108950E941409F7CFFC01892BDB
:1012700081F08381681B67FD09C0062E000C770B87
:10128000948181E09617170609F00CF480E08170D4
:10129000089580E00895FC01A62F622F892B69F143
:1012A0008181481750F59281291738F59381A91B40
:1012B000A7FD23C00A2E000CBB0B94819A171B06B6
:1012C000E1F0DCF00E94CB0A480F858190E0BD017F
:1012D0000E94D40A9C01942F969596959695E20FBC
:1012E000F31FE90FF11D868190E0477002C09595CC
:1012F00087954A95E2F78170089580E00895CF932D
:10130000DF93EC01D901FB0120E080E061E070E0B7
:10131000841304C02C93DF91CF91089591919B0188
:10132000092E02C0220F331F0A94E2F72F5F3F4FAE
:10133000369527952C0F3D1F02C0369527959A9517
:10134000E2F72F3F310531F328F38F5FE1CFCDB7BF
:10135000DEB7CC56D1090FB6F894DEBF0FBECDBFB5
:101360000E9459000E94E3000E9481064E01A1E400
:101370008A0E911CF401208331834283538364835A
:101380007583868397830E94AE062A962FAF2A978D
:101390002B963FAF2B972C964FAF2C972D965FAF88
:1013A0002D972E966FAF2E972F967FAF2F97609623
:1013B0008FAF609761969FAF61970E94DB06629640
:1013C0002FAF629763963FAF639764964FAF649772
:1013D00065965FAF659766966FAF669767967FAFC6
:1013E000679768968FAF689769969FAF69970E94D5
:1013F000EF066A962FAF6A976B963FAF6B976C9626
:101400004FAF6C976D965FAF6D976E966FAF6E979F
:101410006F967FAF6F97A0968FAFA097A1969FAF63
:10142000A197FE01399688E3DF011D928A95E9F7BD
:101430009A828982C40108969C838B8308969E8336
:101440008D83B8E18B0E911C98868F820E94FA00E2
:10145000AA968FAFAA97AB969FAFAB970E941C0737
:10146000AC968FAFAC97AD969FAFAD97FE01ED599F
:10147000FF4F1082A496EFADA497A796EFAFA79762
:10148000F0E0EE0FFF1F81E090E08C0F9D1FE80F52
:10149000F91FAA964FADAA97AB965FADAB97BE0169
:1014A0006D597F4F808191810E942502DE01119646
:1014B000A696BFAFAEAFA697A996BFAFAEAFA9979E
:1014C000212C312C412C512C612C712C812C912CF4
:1014D000A996AEADBFADA9978D919D91A996BFAFCD
:1014E000AEAFA9970E9467069101A201B301C401A2
:1014F000A1E00E94180B19012A013B014C01A4969E
:101500002FADA49730E040E050E060E070E080E074
:1015100090E051016201730184010E94240BC0F626
:10152000A796BFADA797B43009F0A4CF88248394C1
:10153000912C8C0E9D1EEAE08E0E911C60E0A6960A
:10154000AEADBFADA6978D919D91A696BFAFAEAF44
:10155000A6970E94E407A696EEADFFADA697E81504
:10156000F90561F7A2961FAEA297A3961FAEA397A7
:1015700021E0AE014F595F4FAC966FADAC97AD9681
:101580007FADAD97AA968FADAA97AB969FADAB975F
:101590000E94D907EDCF002480FD060E660F11F0E2
:1015A0008695D1F7802D08950024552704C0080E94
:1015B000591F880F991F009729F076956795B8F302
:1015C0007105B9F7802D952F0895AA1BBB1B51E11A
:1015D00007C0AA1FBB1FA617B70710F0A61BB70BA3
:1015E000881F991F5A95A9F780959095BC01CD0148
:1015F0000895052E97FB1EF400940E94100B57FDD2
:1016000007D00E942D0B07FC03D04EF40C94100B56
:1016100050954095309521953F4F4F4F5F4F08951E
:1016200090958095709561957F4F8F4F9F4F08954E
:101630000024A7FD00942A0F301D401D501D601D81
:10164000701D801D901D08952A153B054C055D05F4
:101650006E057F05800791070895A1E21A2EAA1B47
:10166000BB1BFD010DC0AA1FBB1FEE1FFF1FA21752
:10167000B307E407F50720F0A21BB30BE40BF50B4F
:10168000661F771F881F991F1A9469F760957095D8
:10169000809590959B01AC01BD01CF0108950F93FA
:1016A0001F93CF93DF930E94D40A8C010E94660B94
:1016B000EC01009729F0A80170E060E00E948E0C18
:1016C000CE01DF91CF911F910F9108950F931F933A
:1016D000CF93DF939C01029710F422E030E0E09179
:1016E0008D03F0918E0390E080E0B0E0A0E03097B1
:1016F00091F4009709F445C0821B930B8430910547
:10170000B8F58A819B816115710569F1FB019383AD
:101710008283FE0111C040815181028113814217F1
:101720005307F0F04217530799F4109761F012969F
:101730000C93129713961C933296CF01DF91CF91A1
:101740001F910F91089500938D0310938E03F4CF92
:10175000009719F04817590718F4CA01BD01EF01A5
:10176000DF01F801C4CF90938E0380938D03D1CF16
:10177000FE01E80FF91F2193319302979983888323
:10178000DCCF80918B0390918C03892B41F4809165
:1017900034019091350190938C0380938B03809159
:1017A000320190913301009741F48DB79EB740917B
:1017B000360150913701841B950B40918B0350915A
:1017C0008C034817590708F0B8CF841B950B821774
:1017D000930708F4B2CFB9016E5F7F4F8617970762
:1017E00008F4ABCF640F751F70938C0360938B0369
:1017F000FA0121933193A1CFCF93DF939C010097FE
:10180000E9F0FC01329713821282C0918D03D091CE
:101810008E03DE0190E080E02097A1F48081918129
:10182000280F391F80918B0390918C0382179307A7
:1018300009F067C0F0938C03E0938B03DF91CF91A5
:101840000895DA01AE17BF0708F041C012964D9116
:101850005C911397CD014115510599F7DC01139661
:10186000FC93EE9312974D915D91A40FB51FEA176B
:10187000FB0781F4208131812E5F3F4F240F351FFC
:10188000DC0111963C932E932281338113963C9375
:101890002E931297B0E0A0E08A819B810097B1F56A
:1018A000FE0181919191E80FF91F80918B03909136
:1018B0008C038E179F0711F6109759F510928E031F
:1018C00010928D03D0938C03C0938B03B7CFB38357
:1018D000A28340815181240F351FA217B30771F4F1
:1018E0004E5F5F4F2D913C911197420F531F5183D3
:1018F000408312962D913C9133832283009709F007
:10190000ADCFF0938E03E0938D0398CFDE01EC0111
:10191000C3CF13961C921E921297D4CFDC0101C044
:101920006D9341505040E0F70895FB01DC014150B8
:10193000504048F001900D920020C9F701C01D925F
:0C19400041505040E0F70895F894FFCFAC
:10194C000000000000001400000000000000000077
:10195C00000000000000000000000000000000007B
:10196C00000000000000000000000000000000006B
:10197C00000100008F032000010507205F05000017
:10198C00000000C6186380014A290000004A7DF55A
:10199C009502C417471F0163222232062615519364
:1019AC00058608000000880821080282208488002F
:1019BC00805457090080904F080000006088000098
:1019CC00800F00000000008C0100222202002EE695
:1019DC003AA303C4104288032E4244C4072E420784
:1019EC00A30388A9F411023F8407A3032E8617A32F
:1019FC00033F424408012E4617A3032E460FA303B0
:101A0C00C018600C00C0186088008888200802008C
:101A1C007CF0010082208888002E424400012E4276
:101A2C005BAB0344C51F63042FC617E3032E86105C
:101A3C00A2032FC618E3033F8417C2073F84174243
:101A4C00002E861EA30731C61F63048E1042880326
:101A5C00104218A3033195515204218410C207710E
:101A6C00D71A630471D61C63042EC618A3032FC6A1
:101A7C001742002EC65893052FC61763042E06076F
:101A8C00A3039F1042080131C618A30331C61815D1
:101A9C000131C65AAB02312AA26204312A42080132
:101AAC001F2222C207278410C20120088220000EA8
:101ABC00218490034445000000000000C0078220F0
:101ACC000000000038E8A30721B419E30300B810A4
:101ADC00A20310DA1CA30700B8F883034C8A2384F2
:101AEC0000C0C7E8A10321B4196304041842880399
:101AFC00083084920121A4324A02861042880300E5
:101B0C00AC5A630400B419630400B818A30300BCF6
:101B1C00F8420000D8EC210400B419420000B8E0EF
:101B2C00E003421C21240300C418B30500C418159B
:101B3C000100C45AAB02004445540400C4E8A1039C
:101B4C00007C44C4078810410802841042080182BA
:101B5C001044880000888A00004869212050757361
:101B6C0068204E415620746F2073746172740000AB
:101B7C00034000800310038003200040002000106D
:101B8C0000080004000200010380034003200080D1
:101B9C000310D00008040000010000000003000046
:101BAC00010000000002000001000000000003061C
:021BBC00080A15
:00000001FF
