:100000000C943A000C9457000C9457000C94570031
:100010000C9457000C9457000C9457000C94570004
:100020000C9457000C9457000C9457000C945700F4
:100030000C9457000C9457000C9457000C945700E4
:100040000C9457000C9457000C9457000C945700D4
:100050000C9457000C9457000C9457000C945700C4
:100060000C9457000C9457000C9457000C945700B4
:100070000C94570011241FBECFEFD4E0DEBFCDBFDC
:1000800011E0A0E0B1E0E4E6FEE002C005900D92D0
:10009000AC35B107D9F721E0ACE5B1E001C01D9264
:1000A000A537B207E1F70E9482060C9430070C9442
:1000B00000000E94C10084EF91E00E9400020E94B3
:1000C0006B000E94FF010E94BA050E94CD0060E013
:1000D00080E00C94C500E1E6F0E080E880831082C7
:1000E000A89584B7877F84BFE0E6F0E080818861CF
:1000F000808310820895853098F4673088F421E079
:1001000030E001C0220F6A95EAF7E82FF0E0E35AE9
:10011000FE4F822F8095908189234111822B80830D
:100120000895853080F4673070F4E82FF0E0E35AEA
:10013000FE4F81E090E001C0880F6A95EAF7908158
:10014000982381E009F480E0089560915C01E62F36
:10015000F0E0E35AFE4F80810E94FD0080915C0137
:100160008F5F853018F480935C01089510925C01D4
:100170000895EDE5F1E0108211821282138214825B
:1001800008950E94DB000C94B900811105C066231C
:1001900011F0429A0895429808953A9A429A089521
:1001A0009C01FC01FF2784A1832B84A385A1832BC1
:1001B00085A381E00895CF93DF93CCE3D1E08991CB
:1001C00099910E94D00081E0CA34D807C1F783E03A
:1001D00090E40E94D00080E090E80E94D00083E08C
:1001E00090E10E94D00083E090E80E94D00083E07C
:1001F00090E2DF91CF910C94D000E0916201F0E0A9
:10020000EE0FFF1FEE5CFE4F20813181F901FF27C9
:1002100095A1932B95A3ACE3B1E02D913D91F9010C
:10022000FF2780FF1CC025A1932F9095922395A3B3
:10023000869591E0AA34B90781F7E62FF0E0EE0F3A
:10024000FF1FEE5CFE4F20813181F901FF2795A150
:10025000832F8095892385A360936201089595A1DA
:10026000932BE5CF9C0163307105A1F040F4613020
:100270007105E1F06230710511F180E0089564309C
:100280007105D9F7F901FF2784A1832B84A385A1E8
:10029000832B09C0F901FF2784A1832B84A395A197
:1002A000832F8095892385A381E00895F901FF2795
:1002B00094A1832F8095982394A395A1F3CFF9015E
:1002C000FF2794A1832F80958923E0CFE82FF0E0CA
:1002D000EE0FFF1FED59FE4F8081882329F08181A9
:1002E00091E089278170089580E0FCCFE82FF0E04D
:1002F000EE0FFF1FED59FE4F8081811103C08181F8
:100300008170089580E0FCCFE82FF0E0EE0FFF1F32
:10031000ED59FE4F80810895E82FF0E0EE0FFF1FAA
:10032000ED59FE4F908181E0892708957F928F9249
:100330009F92AF92BF92CF92DF92EF92FF920F9374
:100340001F93CF93DF93C3E6D1E05AE4C52E51E06B
:10035000D52E66E0762E88818983F6010191119170
:100360006F015801BB24F50124A1E12EFF2485A1D2
:1003700090E08E219F2130E02E213F21232BB1F1EF
:1003800033E0832E912C892B19F094E0892E912C47
:1003900064E070E0C8010E94320162E070E0C801D0
:1003A0000E943201872D8A95F1F7F50183A190E033
:1003B000E822F92281E0EF2809F080E08883B40187
:1003C000C8010E9432012296F1E0CD36DF0719F60E
:1003D000DF91CF911F910F91FF90EF90DF90CF9021
:1003E000BF90AF909F908F907F90089588248394C2
:1003F000912C892B69F282E0882E912CC9CF089527
:10040000CF93DF93EC010E94EC049E0150E040E0AA
:1004100062E17AE780E090E00E94E00630937001AC
:1004200020936F01DF91CF91089580916D0190919C
:100430006E010E94FB0480916D0190916E012091EC
:100440006F0130917001820F931F90936E01809322
:100450006D0108950C94DD050C94FE050C94E305E4
:100460000C94E9050C94EF050E94EF050E94E90544
:100470008823E1F38CE291E00197F1F70E94DD051A
:1004800081110C942C0208950C940506CF93DF93F0
:1004900000D00F92CDB7DEB78091540190915501F5
:1004A000A091560189839A83AB83509A589A0E94EF
:1004B00076058FE690E00E940F0581E090E00E94B3
:1004C000650561E070E081E090E00E9452050E94C5
:1004D0003E05CE0101960E94C5050F900F900F902A
:1004E000DF91CF910895692F0C94910041E0611143
:1004F00001C040E0692F0C947B000C9476025F925F
:100500006F927F928F929F92AF92BF92CF92DF9223
:10051000EF92FF920F931F93CF93DF93862E772E48
:10052000942E682E592EB62EA72E062E000C770B71
:10053000E82F082E000CFF0B8B010E1B1F0B272D25
:10054000072C000C330B492F092E000C550BE90129
:10055000C41BD50B17FF59C0DD24DA94D7FD02C0A8
:10056000DD24D3948F01061B170BCC24CA94D7FF2C
:1005700003C0EA01C21BD30B0C171D076CF17801F5
:1005800017FF03C08FEFE81AF80AF594E794A92E35
:10059000681014C0692D8B2D9A2DDF91CF911F917A
:1005A0000F91FF90EF90DF90CF90BF90AF909F9012
:1005B0008F907F906F905F900C947602692D862DBE
:1005C0009A2D0E947602EC1AFD0AF7FE03C0E00E97
:1005D000F11EAD0C6C0CDCCF7E01D7FF03C09FEF8A
:1005E000E91AF90AF594E794B82E571499F2692D8F
:1005F0008B2D952D0E947602E01AF10AF7FE03C0BA
:10060000EC0EFD1EBC0C5D0CF0CFCC24C394DD249D
:10061000DA94D7FDAECFDD24D394AECFFF920F9303
:100620001F93CF93DF93D82FF92E162FC72F042FA8
:10063000792F0E947F02402F6D2F7C2F8D2F9F2DB1
:100640000E947F02402F612F7C2F812F9F2D0E94BF
:100650007F02402F612F7C2F8D2F9C2FDF91CF9118
:100660001F910F91FF900C947F020E94B900E0E06F
:10067000F1E0118A14860895DF92EF92FF920F93B2
:100680001F93CF93DF93D82E7B01C62F0F2D809120
:10069000020190910301D0E0019751F1CE2DCD0FD1
:1006A000E0910801F09109018181D81708F45CC03C
:1006B000D0E0E0910801F09109018281D81708F497
:1006C00055C0CF5F27C0212F4D2F6D2D0E942606CC
:1006D000682F8E2D810F902F0E9476021F5F8091D0
:1006E000080190910901FC012281121760F3DF5F7C
:1006F0000F2D0D1BE0910801F09109018181D817A0
:1007000098F0D0E0E0910801F09109018281D817BA
:1007100068F001508C2F902FDF91CF911F910F9196
:10072000FF90EF90DF90089510E0D9CF60E08E2D1C
:100730008D0F902F0E947602DF5FE4CF212F4D2F87
:100740006D2D0E942606682F8C2F9F2D910F0E94E1
:1007500076021F5F8091080190910901FC012281BE
:10076000121760F3DF5F9ACF10E0F4CF60E08C2FB8
:100770009F2D9D0F0E947602DF5F9BCF1F93CF932B
:10078000DF93EC0110E08991882341F00E943C0343
:10079000BC011F5F853014F477FFF5CF812FDF9107
:1007A000CF911F9108950F931F93CF93DF93EC0187
:1007B000362F272F10920C0140930D01109210013B
:1007C00000910801109109010115110509F446C0B5
:1007D000F8018181609106017091070190E00E940B
:1007E000BB06BC0180910A0190910B010E94CC06CE
:1007F000CB016AE070E00E94BB0690930F018093EA
:100800000E01309304012093050140E250E0BE0147
:1008100081E191E00E942107809100019091010106
:100820000197E1F4FE0101900020E9F73197BF0143
:100830006C1B7D0BF80181818F5F0E94B206815095
:10084000209102013091030195E02130310509F436
:1008500097E0981718F48EEF80931001DF91CF91F5
:100860001F910F910895209102013091030170E0D2
:100870002130310509F476E04FEF60E00C94D303AA
:1008800090E09093070180930601089590930101F1
:1008900080930001089590930301809302010895CD
:1008A00090930901809308010895809171019091BE
:1008B00072010196909372018093710120910E0153
:1008C00030910F018217930708F441C01092720112
:1008D00010927101E0910C01F0E0E050FF4F81892E
:1008E000811109C080910D01823088F1815080937F
:1008F0000D0110920C0180910C0190E0FC01E05080
:10090000FF4F2189222319F14091000150910101EB
:100910002091100141155105E1F04130510551F18F
:10092000809110018F5F80931001082E000C990BAD
:10093000E0910801F09109012181281719063CF482
:100940001092100180910C018F5F80930C010C9428
:10095000A5002111E5CF60910401709105018F5E22
:100960009E4F0E94BE0390910C019150980F90935E
:100970000C01D6CF609104017091050140910201F4
:10098000509103014130510531F4720F8F5E9E4F3B
:100990000E94BE03C5CF621BF9CFCF93DF93C0E0A7
:1009A000D1E09B878A870E94C10084E190E09F8309
:1009B0008E83DF91CF910C94350390E080E0089511
:1009C00061E080E00E94C50080E092E10E9407059E
:1009D00060E080E00C94C5001092800084E0809379
:1009E0008100109285001092840008958091840007
:1009F0009091850008959C018091840090918500DC
:100A0000AC01421B530B483E5340B0F70895209170
:100A1000840030918500820F931F0C94FB04CF93C8
:100A2000DF930F92CDB7DEB79E012F5F3F4F45E0BA
:100A300067E571E00E945A06E82F81E08E0F8093EF
:100A400031018981815087BD18BC85B5877039F027
:100A500095B5809131018770987F892B85BD8981FB
:100A600090E0F0E0E95AFE4F208102C0880F991F04
:100A70002A95E2F70F90DF91CF91089585B3897F92
:100A800085BB95B5809131018770987F892B85BD95
:100A9000089585B5887F85BD089585B382FB882735
:100AA00080F90895009719F0019751F0089584B5E1
:100AB0008F736295660F660F607C682B64BD089526
:100AC00084B5629560738F7CF8CF009721F0019711
:100AD00039F080E0089584B58C7F84BD81E008956D
:100AE00084B58E7F84BD84B58260F7CF14BC15BCFD
:100AF00016BC18BC84B58E7F84BD84B5826084BD6D
:100B000081E0089581110CC080917301882331F038
:100B10008091740191E089278170089580E0FCCF75
:100B200080E0089581110AC080917301811104C091
:100B3000809174018170089580E0FCCF80E0089579
:100B4000811103C080917301089580E0089581119F
:100B500005C08091730191E08927089580E0089590
:100B6000E3E7F1E08081818389B1881F8827881FAE
:100B70008083089557985F9808959C0101979093FA
:100B8000CD0021502093CC000895CF93DF93EC014A
:100B9000888199810E94BD058A819BEF980F9430CE
:100BA00008F088E098E19093C9008550880F809301
:100BB000CA0081E0DF91CF9108958091C800881F1D
:100BC0008827881F08958091C80085FB882780F9B1
:100BD00008958091C80086FB882780F90895CF93F7
:100BE000C82F0E94E3058823E1F38091C800806448
:100BF0008093C800C093CE00CF9108958091C80023
:100C000087FFFCCF8091CE000895CF93DF93EC0156
:100C10008991811103C0DF91CF9108950E94EF0562
:100C2000F7CFFC01892B81F08381681B67FD09C028
:100C3000062E000C770B948181E09617170609F0B9
:100C40000CF480E08170089580E00895FC01A62FE7
:100C5000622F892B69F18181481750F592812917FC
:100C600038F59381A91BA7FD23C00A2E000CBB0BEE
:100C700094819A171B06E1F0DCF00E94B206480F3F
:100C8000858190E0BD010E94BB069C01942F969542
:100C900096959695E20FF31FE90FF11D868190E07E
:100CA000477002C0959587954A95E2F7817008953F
:100CB00080E00895CF93DF93EC01D901FB0120E0A0
:100CC00080E061E070E0841304C02C93DF91CF9149
:100CD000089591919B01092E02C0220F331F0A949F
:100CE000E2F72F5F3F4F369527952C0F3D1F02C02F
:100CF000369527959A95E2F72F3F310531F328F382
:100D00008F5FE1CF0E9459000E94DD048C0163E0F7
:100D100081E00E94E0040E94B900E801780180E2CD
:100D2000E80EF11C8B8110E0811112C08881181728
:100D300090F4898141E06A81810F0E947B001F5FEE
:100D4000F5CF6A81610F41E089810E947B001F5FBE
:100D500088811817B0F32896CE15DF0519F70E9481
:100D6000A500FDCF002480FD060E660F11F08695CC
:100D7000D1F7802D08950024552704C0080E591F6F
:100D8000880F991F009729F076956795B8F371053C
:100D9000B9F7802D952F0895AA1BBB1B51E107C001
:100DA000AA1FBB1FA617B70710F0A61BB70B881FFB
:100DB000991F5A95A9F780959095BC01CD0108958A
:100DC000052E97FB1EF400940E94F70657FD07D0EE
:100DD0000E94FF0607FC03D04EF40C94F7065095D2
:100DE0004095309521953F4F4F4F5F4F0895909517
:100DF0008095709561957F4F8F4F9F4F0895A1E229
:100E00001A2EAA1BBB1BFD010DC0AA1FBB1FEE1F84
:100E1000FF1FA217B307E407F50720F0A21BB30BCF
:100E2000E40BF50B661F771F881F991F1A9469F74B
:100E300060957095809590959B01AC01BD01CF01A7
:100E40000895FB01DC014150504048F001900D92A3
:100E50000020C9F701C01D9241505040E0F70895AD
:040E6000F894FFCF34
:100E6400000000000000140000000000000000006A
:100E7400000000000000000000000000000000006E
:100E8400000000000000000000000000000000005E
:100E94000001034000800310038003200040002071
:100EA4000010000800040002000103800340032036
:0C0EB40000800310D00008000306080AAC
:00000001FF
