:100000000C943A000C9457000C9457000C94570031
:100010000C9457000C9457000C9457000C94570004
:100020000C9457000C9457000C9457000C945700F4
:100030000C9457000C9457000C9457000C945700E4
:100040000C9457000C9457000C9457000C945700D4
:100050000C9457000C9457000C9457000C945700C4
:100060000C9457000C9457000C9457000C945700B4
:100070000C94570011241FBECFEFD4E0DEBFCDBFDC
:1000800011E0A0E0B1E0E2E5F3E102C005900D92DD
:10009000A438B107D9F721E0A4E8B1E001C01D926E
:1000A000AD39B207E1F70E9422090C94A7090C941C
:1000B00000000E94580184EF91E00E94E9030E9431
:1000C00002010E94E8030E945A080E94640160E055
:1000D00080E00E945C010C945001EF92FF920F931C
:1000E0001F93CF93DF93CDB7DEB7C056D1090FB6BC
:1000F000F894DEBF0FBECDBF0E94CC068E010F5B11
:100100001F4FF801208331834283538364837583B7
:10011000868397830E94F9062A962FAF2A972B96FB
:100120003FAF2B972C964FAF2C972D965FAF2D9707
:100130002E966FAF2E972F967FAF2F9760968FAF2B
:10014000609761969FAF61970E94260762962FAFD6
:10015000629763963FAF639764964FAF64976596D7
:100160005FAF659766966FAF669767967FAF679745
:1001700068968FAF689769969FAF69970E945307FB
:100180006A962FAF6A976B963FAF6B976C964FAF9F
:100190006C976D965FAF6D976E966FAF6E976F961B
:1001A0007FAF6F97A0968FAFA097A1969FAFA197B3
:1001B0001A830983C80108969C838B8308969E83C3
:1001C0008D83085E1F4F18870F83085511097E0124
:1001D000F9E0EF0EF11CF801819191918F010E94DD
:1001E000C6060E151F05B9F7C05ADF4F0FB6F894B3
:1001F000DEBF0FBECDBFDF91CF911F910F91FF905A
:10020000EF900895E1E6F0E080E880831082A89501
:1002100084B7877F84BFE0E6F0E0808188618083D7
:1002200010820895853098F4673088F421E030E03A
:1002300001C0220F6A95EAF7E82FF0E0EB57FE4F76
:10024000822F8095908189234111822B808308958C
:10025000853080F4673070F4E82FF0E0EB57FE4F04
:1002600081E090E001C0880F6A95EAF790819823B9
:1002700081E009F480E0089560918401E62FF0E0C8
:10028000EB57FE4F80810E94E602809184018F5FD0
:10029000853018F4809384010895109284010895A4
:1002A000E5E8F1E01082118212821382148208952F
:1002B0000E94C4020C945001811105C0662311F004
:1002C000429A0895429808953A9A429A08953F9220
:1002D0004F925F926F927F928F929F92AF92BF9256
:1002E000CF92DF92EF92FF920F931F93CF93DF9302
:1002F000CDB7DEB7A3970FB6F894DEBF0FBECDBF64
:100300006C01CE0101965C0183E2D5011D928A95B4
:10031000E9F74601B0E28B0E911C86013324339439
:1003200086E0682E712C0E94FE030E947F030E94CB
:10033000500884E00E944F038823A1F0F8018381D4
:1003400081110BC0F8018281843008F06BC03382C8
:1003500009C08150D80111968C93F80181818230B7
:10036000C0F7138280E00E944F03882349F0D80130
:1003700012968C911297882319F0815012968C93C3
:1003800082E00E944F03F12C8823A1F0F8018381C1
:10039000F12C882311F0F080FA94D80112968C91F8
:1003A000129793012F193109821713061CF48F5FDE
:1003B00012968C9381E00E944F038823A1F0F801EC
:1003C0008381811102C0F080FA94D80111968C913A
:1003D000119724E030E02F193109821713061CF41D
:1003E0008F5F11968C9383E00E944F03882331F036
:1003F000F8018181882311F08150818380E00E947F
:100400002208582E882309F45FC0D8011396FC9067
:1004100013974C9130E020E0FF20D9F15F2C30E0C1
:1004200020E019C08150D80112968C938BCFF8012F
:100430008181E28190E067E070E00E9432098A0DDC
:100440009B1D820F931FE80FF92FF11D80818111F1
:10045000512C2F5F3F4F241750F35520A9F130E066
:1004600020E030C0D80111968C9111971296EC9132
:10047000820F932F911D67E070E00E9432098A0D70
:100480009B1DE80FF92FF11D80818111512C2F5FE9
:100490003F4F241738F3E1CFF801818190E0E281EA
:1004A000AE2FB0E0FF2031F167E070E00E9432092A
:1004B000F501E80FF91FE20FF31FEA0FFB1F30826F
:1004C0002F5F3F4F241740F30E9450017601D70160
:1004D00013968C91412C81111FC0D7018C91481625
:1004E000F8F4F701818141E06281840D0E941201DC
:1004F0004394F3CF820F931F67E070E00E943209AC
:10050000F501E80FF91FD9CFF7016281640D41E0D1
:1005100081810E9412014394D7018C914816A0F367
:10052000B8E0EB0EF11CE814F90489F60E943C01D6
:10053000552009F4F8CE085F1F4F0E151F0509F06E
:10054000F2CEA3960FB6F894DEBF0FBECDBFDF91FB
:10055000CF911F910F91FF90EF90DF90CF90BF90C0
:10056000AF909F908F907F906F905F904F903F9053
:1005700008959C01FC01FF2784A1832B84A385A1FE
:10058000832B85A381E00895CF93DF93C4E4D1E06A
:10059000899199910E94B90281E0C235D807C1F7CB
:1005A00083E090E40E94B90280E090E80E94B902E2
:1005B00083E090E10E94B90283E090E80E94B902D2
:1005C00083E090E2DF91CF910C94B902E0918A012F
:1005D000F0E0EE0FFF1FE65CFE4F20813181F90154
:1005E000FF2795A1932B95A3A4E4B1E02D913D9114
:1005F000F901FF2780FF1CC025A1932F909592231E
:1006000095A3869591E0A235B90781F7E62FF0E032
:10061000EE0FFF1FE65CFE4F20813181F901FF27BD
:1006200095A1832F8095892385A360938A010895DE
:1006300095A1932BE5CF9C0163307105A1F040F4A7
:1006400061307105E1F06230710511F180E00895CB
:1006500064307105D9F7F901FF2784A1832B84A3A6
:1006600085A1832B09C0F901FF2784A1832B84A3D3
:1006700095A1832F8095892385A381E00895F901B1
:10068000FF2794A1832F8095982394A395A1F3CF5E
:10069000F901FF2794A1832F80958923E0CFE82FCC
:1006A000F0E0EE0FFF1FE557FE4F8081882329F011
:1006B000818191E089278170089580E0FCCFE82F47
:1006C000F0E0EE0FFF1FE557FE4F8081811103C060
:1006D00081818170089580E0FCCFE82FF0E0EE0F7B
:1006E000FF1FE557FE4F80810895E82FF0E0EE0FE1
:1006F000FF1FE557FE4F908181E0892708957F9283
:100700008F929F92AF92BF92CF92DF92EF92FF9221
:100710000F931F93CF93DF93CBE8D1E052E5C52E23
:1007200051E0D52E66E0762E88818983F60101910D
:1007300011916F015801BB24F50124A1E12EFF2482
:1007400085A190E08E219F2130E02E213F21232B97
:10075000B1F133E0832E912C892B19F094E0892E8E
:10076000912C64E070E0C8010E941B0362E070E01D
:10077000C8010E941B03872D8A95F1F7F50183A11B
:1007800090E0E822F92281E0EF2809F080E08883F8
:10079000B401C8010E941B032296F1E0C539DF07AE
:1007A00019F6DF91CF911F910F91FF90EF90DF909D
:1007B000CF90BF90AF909F908F907F9008958824A6
:1007C0008394912C892B69F282E0882E912CC9CFD9
:1007D0000895CF93DF93EC010E948C079E0150E0B7
:1007E00040E062E17AE780E090E00E9457093093B0
:1007F000980120939701DF91CF9108958091950101
:10080000909196010E949B0780919501909196018D
:100810002091970130919801820F931F9093960138
:100820008093950108950C947D080C949E080C9477
:1008300083080C9489080C948F080E948F080E94EA
:1008400089088823E1F38CE291E00197F1F70E9497
:100850007D0881110C94150408950C94A508CF937C
:10086000DF9300D00F92CDB7DEB780915C019091FD
:100870005D01A0915E0189839A83AB83509A589A57
:100880000E9416088FE690E00E94AF0781E090E09A
:100890000E94050861E070E081E090E00E94F207AC
:1008A0000E94DE07CE0101960E9465080F900F900E
:1008B0000F90DF91CF910895692F0C94280141E0AA
:1008C000611101C040E0692F0C9412010C945F0487
:1008D0005F926F927F928F929F92AF92BF92CF92D0
:1008E000DF92EF92FF920F931F93CF93DF93862EA9
:1008F000772E942E682E592EB62EA72E062E000C7B
:10090000770BE82F082E000CFF0B8B010E1B1F0B23
:10091000272D072C000C330B492F092E000C550BEB
:10092000E901C41BD50B17FF59C0DD24DA94D7FDAC
:1009300002C0DD24D3948F01061B170BCC24CA946C
:10094000D7FF03C0EA01C21BD30B0C171D076CF1C4
:10095000780117FF03C08FEFE81AF80AF594E794BF
:10096000A92E681014C0692D8B2D9A2DDF91CF917F
:100970001F910F91FF90EF90DF90CF90BF90AF90BD
:100980009F908F907F906F905F900C945F04692D83
:10099000862D9A2D0E945F04EC1AFD0AF7FE03C013
:1009A000E00EF11EAD0C6C0CDCCF7E01D7FF03C056
:1009B0009FEFE91AF90AF594E794B82E571499F2C3
:1009C000692D8B2D952D0E945F04E01AF10AF7FE28
:1009D00003C0EC0EFD1EBC0C5D0CF0CFCC24C39408
:1009E000DD24DA94D7FDAECFDD24D394AECFFF92D1
:1009F0000F931F93CF93DF93D82FF92E162FC72F66
:100A0000042F792F0E946804402F6D2F7C2F8D2F8B
:100A10009F2D0E946804402F612F7C2F812F9F2DD6
:100A20000E946804402F612F7C2F8D2F9C2FDF9117
:100A3000CF911F910F91FF900C9468040E94500178
:100A4000E8E0F1E0118A14860895DF92EF92FF92B8
:100A50000F931F93CF93DF93D82E7B01C62F0F2DBB
:100A600080910A0190910B01D0E0019751F1CE2DB8
:100A7000CD0FE0911001F09111018181D81708F498
:100A80005CC0D0E0E0911001F09111018281D81793
:100A900008F455C0CF5F27C0212F4D2F6D2D0E9428
:100AA000C608682F8E2D810F902F0E945F041F5F54
:100AB0008091100190911101FC012281121760F3C5
:100AC000DF5F0F2D0D1BE0911001F091110181816D
:100AD000D81798F0D0E0E0911001F09111018281D7
:100AE000D81768F001508C2F902FDF91CF911F9174
:100AF0000F91FF90EF90DF90089510E0D9CF60E064
:100B00008E2D8D0F902F0E945F04DF5FE4CF212F89
:100B10004D2F6D2D0E94C608682F8C2F9F2D910F91
:100B20000E945F041F5F8091100190911101FC01F0
:100B30002281121760F3DF5F9ACF10E0F4CF60E0FC
:100B40008C2F9F2D9D0F0E945F04DF5F9BCF1F9313
:100B5000CF93DF93EC0110E08991882341F00E944C
:100B60002505BC011F5F853014F477FFF5CF812F79
:100B7000DF91CF911F9108950F931F93CF93DF9330
:100B8000EC01362F272F109214014093150110927B
:100B9000180100911001109111010115110509F4BE
:100BA00046C0F801818160910E0170910F0190E0C3
:100BB0000E943209BC0180911201909113010E94A0
:100BC0004309CB016AE070E00E943209909317015B
:100BD0008093160130930C0120930D0140E250E008
:100BE000BE0189E191E00E949809809108019091ED
:100BF00009010197E1F4FE0101900020E9F7319726
:100C0000BF016C1B7D0BF80181818F5F0E94290958
:100C1000815020910A0130910B0195E0213031057E
:100C200009F497E0981718F48EEF80931801DF917C
:100C3000CF911F910F91089520910A0130910B01DE
:100C400070E02130310509F476E04FEF60E00C945C
:100C5000BC0590E090930F0180930E01089590934E
:100C6000090180930801089590930B0180930A0174
:100C70000895909311018093100108958091990136
:100C800090919A01019690939A01809399012091F5
:100C90001601309117018217930708F441C0109292
:100CA0009A0110929901E0911401F0E0E85FFE4F83
:100CB0008189811109C080911501823088F18150AC
:100CC00080931501109214018091140190E0FC01B1
:100CD000E85FFE4F2189222319F1409108015091CC
:100CE00009012091180141155105E1F041305105EC
:100CF00051F1809118018F5F80931801082E000C2C
:100D0000990BE0911001F09111012181281719062A
:100D10003CF410921801809114018F5F80931401AC
:100D20000C943C012111E5CF60910C0170910D01F3
:100D3000875E9E4F0E94A705909114019150980FD5
:100D400090931401D6CF60910C0170910D014091E8
:100D50000A0150910B014130510531F4720F875E49
:100D60009E4F0E94A705C5CF621BF9CFCF93DF939B
:100D7000C8E0D1E09B878A870E94580184E190E017
:100D80009F838E83DF91CF910C941E05FC0141E07F
:100D9000628181810C941201CF93DF93CDB7DEB7CE
:100DA00060970FB6F894DEBF0FBECDBF88E0EFE5C9
:100DB000F1E0DE01199601900D928A95E1F788E045
:100DC000FE013996DE01119601900D928A95E1F7A8
:100DD00029813A814B815C816D817E818F819885EB
:100DE00060960FB6F894DEBF0FBECDBFDF91CF91F6
:100DF0000895CF93DF93CDB7DEB760970FB6F89421
:100E0000DEBF0FBECDBF88E0E7E6F1E0DE01199658
:100E100001900D928A95E1F788E0FE013996DE0196
:100E2000119601900D928A95E1F729813A814B81C3
:100E30005C816D817E818F81988560960FB6F89474
:100E4000DEBF0FBECDBFDF91CF910895CF93DF936B
:100E5000CDB7DEB760970FB6F894DEBF0FBECDBF3B
:100E600088E0EFE6F1E0DE01199601900D928A9597
:100E7000E1F788E0FE013996DE01119601900D92AE
:100E80008A95E1F729813A814B815C816D817E8170
:100E90008F81988560960FB6F894DEBF0FBECDBFE8
:100EA000DF91CF910895CF93DF93CDB7DEB76097F1
:100EB0000FB6F894DEBF0FBECDBF88E0E7E7F1E0E4
:100EC000DE01199601900D928A95E1F788E0FE0106
:100ED0003996DE01119601900D928A95E1F72981EC
:100EE0003A814B815C816D817E818F81988560968E
:100EF0000FB6F894DEBF0FBECDBFDF91CF9108953E
:100F000061E080E00E945C0180E092E10E94A7071E
:100F100060E080E00C945C011092800084E080939B
:100F200081001092850010928400089580918400C1
:100F30009091850008959C01809184009091850096
:100F4000AC01421B530B483E5340B0F7089520912B
:100F5000840030918500820F931F0C949B07CF93E0
:100F6000DF930F92CDB7DEB79E012F5F3F4F45E075
:100F70006FE771E00E94FA08E82F81E08E0F8093FE
:100F800039018981815087BD18BC85B5877039F0DA
:100F900095B5809139018770987F892B85BD8981AE
:100FA00090E0F0E0E158FE4F208102C0880F991FC9
:100FB0002A95E2F70F90DF91CF91089585B3897F4D
:100FC00085BB95B5809139018770987F892B85BD48
:100FD000089585B5887F85BD089585B382FB8827F0
:100FE00080F90895009719F0019751F0089584B59C
:100FF0008F736295660F660F607C682B64BD0895E1
:1010000084B5629560738F7CF8CF009721F00197CB
:1010100039F080E0089584B58C7F84BD81E0089527
:1010200084B58E7F84BD84B58260F7CF14BC15BCB7
:1010300016BC18BC84B58E7F84BD84B5826084BD27
:1010400081E0089581110CC080919B01882331F0CB
:1010500080919C0191E089278170089580E0FCCF08
:1010600080E0089581110AC080919B01811104C024
:1010700080919C018170089580E0FCCF80E008950C
:10108000811103C080919B01089580E00895811132
:1010900005C080919B0191E08927089580E0089523
:1010A000EBE9F1E08081818389B1881F8827881F5F
:1010B0008083089557985F9808959C0101979093B5
:1010C000CD0021502093CC000895CF93DF93EC0105
:1010D000888199810E945D088A819BEF980F9430E6
:1010E00008F088E098E19093C9008550880F8093BC
:1010F000CA0081E0DF91CF9108958091C800881FD8
:101100008827881F08958091C80085FB882780F96B
:1011100008958091C80086FB882780F90895CF93B1
:10112000C82F0E9483088823E1F38091C80080645F
:101130008093C800C093CE00CF9108958091C800DD
:1011400087FFFCCF8091CE000895CF93DF93EC0111
:101150008991811103C0DF91CF9108950E948F087A
:10116000F7CFFC01892B81F08381681B67FD09C0E3
:10117000062E000C770B948181E09617170609F074
:101180000CF480E08170089580E00895FC01A62FA2
:10119000622F892B69F18181481750F592812917B7
:1011A00038F59381A91BA7FD23C00A2E000CBB0BA9
:1011B00094819A171B06E1F0DCF00E942909480F80
:1011C000858190E0BD010E9432099C01942F969583
:1011D00096959695E20FF31FE90FF11D868190E039
:1011E000477002C0959587954A95E2F781700895FA
:1011F00080E00895CF93DF93EC01D901FB0120E05B
:1012000080E061E070E0841304C02C93DF91CF9103
:10121000089591919B01092E02C0220F331F0A9459
:10122000E2F72F5F3F4F369527952C0F3D1F02C0E9
:10123000369527959A95E2F72F3F310531F328F33C
:101240008F5FE1CF0E9459000E946D000E943C0117
:10125000FDCF002480FD060E660F11F08695D1F7B4
:10126000802D08950024552704C0080E591F880FAB
:10127000991F009729F076956795B8F37105B9F72E
:10128000802D952F0895AA1BBB1B51E107C0AA1FF3
:10129000BB1FA617B70710F0A61BB70B881F991F17
:1012A0005A95A9F780959095BC01CD010895052E1A
:1012B00097FB1EF400940E946E0957FD07D00E9410
:1012C000760907FC03D04EF40C946E0950954095B6
:1012D000309521953F4F4F4F5F4F089590958095E2
:1012E000709561957F4F8F4F9F4F0895A1E21A2E01
:1012F000AA1BBB1BFD010DC0AA1FBB1FEE1FFF1FBA
:10130000A217B307E407F50720F0A21BB30BE40B09
:10131000F50B661F771F881F991F1A9469F7609550
:101320007095809590959B01AC01BD01CF0108950A
:10133000FB01DC014150504048F001900D9200202B
:10134000C9F701C01D9241505040E0F70895F8944C
:02135000FFCFCD
:101352000400000100000000000000000000140072
:10136200000000000000000000000000000000007B
:10137200000000000000000000000000000000006B
:101382000000000000000000000103400080031084
:101392000380032000400020001000080004000227
:1013A200000103800340032000800310D0000804E2
:1013B2000000010000000003010101000000000321
:1013C200020201000000000203030100000000000D
:0413D2000306080AFC
:00000001FF
