:100000000C943A000C9457000C9457000C94570031
:100010000C9457000C9457000C9457000C94570004
:100020000C9457000C9457000C9457000C945700F4
:100030000C9457000C9457000C9457000C945700E4
:100040000C9457000C9457000C9457000C945700D4
:100050000C9457000C9457000C9457000C945700C4
:100060000C9457000C9457000C9457000C945700B4
:100070000C94570011241FBECFEFD4E0DEBFCDBFDC
:1000800011E0A0E0B1E0EAEEF0E102C005900D92CF
:10009000AC35B107D9F721E0ACE5B1E001C01D9264
:1000A000A537B207E1F70E94B7070C9473080C94C8
:1000B00000000E94BB0084EF91E00E94F6010E94C4
:1000C00065000E94F5010C94E906E1E6F0E080E8A5
:1000D00080831082A89584B7877F84BFE0E6F0E034
:1000E00080818861808310820895853098F467301C
:1000F00088F421E030E001C0220F6A95EAF7E82F8A
:10010000F0E0E35AFE4F922F9095808189234111B0
:10011000822B80830895853080F4673070F421E06D
:1001200030E001C0220F6A95EAF7E82FF0E0E35AC9
:10013000FE4F8081282381E009F480E008956091DA
:100140005C01E62FF0E0E35AFE4F80810E94ED0053
:1001500080915C018F5F853018F480935C01089575
:1001600010925C010895EDE5F1E010821182128297
:100170001382148208950E94CB000C94B3009C015A
:10018000FC01FF2784A1832B84A395A1892F832BB6
:1001900085A381E00895CF93DF93CCE3D1E08991EB
:1001A00099910E94BF0081E0CA34D807C1F783E06B
:1001B00090E40E94BF0080E090E80E94BF0083E0CE
:1001C00090E10E94BF0083E090E80E94BF0083E0BE
:1001D00090E2DF91CF910C94BF00E0916201F0E0DA
:1001E000EE0FFF1FEE5CFE4F20813181F901FF27EA
:1001F00095A1932B95A3ECE3F1E097E02081318169
:10020000D901BB2795962C91959780FF03C0309517
:10021000232301C0232B95962C93869591503296DB
:100220009111ECCFE62FF0E0EE0FFF1FEE5CFE4FDA
:1002300080819181FC01FF2785A19095892385A369
:100240006093620108956230710519F170F46130B4
:10025000710559F5FC01FF2724A1392F3095922F04
:10026000932394A385A183231DC06330710541F0BE
:1002700064307105D1F4FC01FF2784A1892B0FC0E4
:10028000FC01FF2784A1892B84A385A19095892354
:1002900009C0FC01FF2784A1292F2095822384A374
:1002A00085A1892B85A381E0089580E00895E82F3A
:1002B000F0E0EE0FFF1FED59FE4F8081882321F003
:1002C000918181E0892702C080E090E081700895EB
:1002D000E82FF0E0EE0FFF1FED59FE4F80818111F6
:1002E00002C0818102C080E090E081700895E82F13
:1002F000F0E0EE0FFF1FED59FE4F80810895E82FCB
:10030000F0E0EE0FFF1FED59FE4F908181E089274D
:1003100008957F928F929F92AF92BF92CF92DF9279
:10032000EF92FF920F931F93CF93DF93C3E6D1E039
:100330005AE4C52E51E0D52E66E0762E8881898359
:10034000F601019111916F015801BB24F50124A11F
:10035000E12EFF2485A190E08E219F2130E02E2107
:100360003F21232B31F0892B51F433E0832E912C44
:100370000DC0892B41F488248394912C07C094E00C
:10038000892E912C03C082E0882E912C64E070E0CD
:10039000C8010E94230162E070E0C8010E942301AD
:1003A000872D8A95F1F7F50183A190E0E822F922E3
:1003B00081E0EF2809F080E08883B401C8010E9441
:1003C00023012296F1E0CD36DF0709F0B7CFDF91A8
:1003D000CF911F910F91FF90EF90DF90CF90BF9042
:1003E000AF909F908F907F9008950895CF93DF9363
:1003F000EC010E9417069E0140E050E062E17AE7BE
:1004000080E090E00E9423083093700120936F01F8
:10041000DF91CF91089580916D0190916E010E94BE
:10042000260620916D0130916E0180916F019091AF
:100430007001820F931F90936E0180936D01089558
:100440000C940D070C942E070C9413070C941907A9
:100450000C941F070E941F070E9419078823E1F3CD
:100460008CE291E00197F1F70E940D0781110C9445
:10047000220208950C943507CF93DF9300D01F928A
:10048000CDB7DEB78091540190915501A0915601EE
:1004900089839A83AB83509A589A0E94A3068FE669
:1004A00090E00E943A0681E090E00E94920661E0AE
:1004B00070E081E090E00E947E060E946A06CE0114
:1004C00001960E94F5060F900F900F90DF91CF914B
:1004D0000895692F0C948B0041E0611101C040E048
:1004E000692F0C9475000C946C025F926F927F924E
:1004F0008F929F92AF92BF92CF92DF92EF92FF9234
:100500000F931F93CF93DF93562E872E942E5C016B
:10051000E62EF72EC62F660FDD0BC81BD10987FD0F
:10052000D395072F770F110B091B110997FD139511
:10053000D7FF03C077247A9402C07724739417FFFF
:1005400003C066246A9402C066246394D7FF03C084
:10055000D195C195D10917FF03C0119501951109D6
:10056000C017D107A4F06E01D594C794F92EA51435
:1005700011F1692D8A2D9F2D0E946C02C01AD10A9B
:10058000D7FE03C0CC0EDD1EF60CA70CF0CF680121
:10059000D594C794E82EB81471F0692D8E2D9B2D3B
:1005A0000E946C02CC1ADD0AD7FE03C0C00ED11E19
:1005B000E70CB60CF0CF692DC701DF91CF911F91E9
:1005C0000F91FF90EF90DF90CF90BF90AF909F90F2
:1005D0008F907F906F905F900C946C02FF920F93BE
:1005E0001F93CF93DF93D82FF92E162FC72F042FE9
:1005F000792F0E947502402F6D2F7C2F8D2F9F2DFC
:100600000E947502402F612F7C2F812F9F2D0E9409
:100610007502402F612F7C2F8D2F9C2F0E94750219
:10062000DF91CF911F910F91FF9008950E94B30029
:10063000E0E0F1E0118A14860895DF92EF92FF92D4
:100640000F931F93CF93DF93D82E7B01162F0F2D7F
:100650008091020190910301D0E0019799F50F2D4F
:100660000D1BE0910801F09109018181C0E0D817CC
:10067000B8F48091080190910901FC012281C21710
:1006800068F42C2F4D2F6D2D0E945607682F8E2D4C
:100690008C0F902F0E946C02CF5FEBCFDF5FDFCF1C
:1006A000E0910801F09109018281C81740F460E0EF
:1006B0008E2D8C0F902F0E946C02CF5FF1CF0150D6
:1006C00030C0DF5F1E2D1D0FE0910801F091090180
:1006D0008181C0E0D817A8F48091080190910901A8
:1006E000FC012281C21768F72C2F4D2F6D2D0E941F
:1006F0005607682F812F9F2D9C0F0E946C02CF5FA1
:10070000EBCFE0910801F09109018281C81740F414
:1007100060E0812F9F2D9C0F0E946C02CF5FF1CF74
:100720001F5F812F902FDF91CF911F910F91FF902D
:10073000EF90DF9008950F931F93CF938C01C0E04B
:10074000F80181918F01882341F00E941D03BC01B3
:10075000CF5F853014F477FFF3CF8C2FCF911F91AB
:100760000F9108950F931F93CF93DF9310920C0175
:1007700040930D01109210010091080110910901A0
:100780000115110509F449C09B01EC01F8018181B3
:10079000609106017091070190E00E94FE07BC0184
:1007A00080910A0190910B010E940F08CB016AE031
:1007B00070E00E94FE0790930F0180930E0130932A
:1007C00005012093040140E250E0BE0181E191E087
:1007D0000E94640880910001909101010197E9F461
:1007E000FE0101900020E9F73197BF016C1B7D0BE2
:1007F000F80181818F5F0E94F507815020910201ED
:10080000309103012130310511F095E001C097E0EE
:10081000981718F48EEF80931001DF91CF911F91FC
:100820000F9108952091020130910301213031058B
:1008300011F070E001C076E04FEF60E00E94B2037B
:10084000089590E090930701809306010895909396
:1008500001018093000108959093030180930201A8
:100860000895909309018093080108958091710182
:100870009091720101969093720180937101209181
:100880000E0130910F018217930708F469C010928E
:10089000720110927101E0910C01F0E0E050FF4F05
:1008A000818981110AC080910D01823008F458C0FD
:1008B000815080930D0110920C0180910C0190E009
:1008C000FC01E050FF4F2189222309F449C04091E7
:1008D000000150910101209110014115510521F0B5
:1008E0004130510599F024C0211122C060910401CA
:1008F000709105018F5E9E4F0E949B0390E00197CF
:1009000090910C01890F80930C0112C06091040139
:100910007091050140910201509103014130510550
:1009200011F4720F01C0621B8F5E9E4F0E949B03E9
:10093000809110018F5F80931001082E000C990B9D
:10094000E0910801F0910901218130E02817390771
:100950003CF41092100180910C018F5F80930C0188
:100960000C949F00CF93DF93C0E0D1E09B878A87F0
:100970000E94BB0084E190E09F838E83DF91CF9142
:100980000C9416033F924F925F926F927F928F92D8
:100990009F92AF92BF92CF92DF92EF92FF920F930E
:1009A0001F93CF93DF93CDB7DEB7A3970FB6F8941D
:1009B000DEBF0FBECDBF6C01CE0101965C0183E2AC
:1009C000D5011D928A95E9F74601B0E28B0E911C84
:1009D00086013324339486E0682E712C0E940B022A
:1009E0000E9489010E94DF0684E00E94570188234B
:1009F000A1F0F801838181110BC0F801828184305C
:100A000008F06BC0338209C08150D80111968C93D5
:100A1000F80181818230C0F7138280E00E94570183
:100A2000882349F0D80112968C911297882319F0E7
:100A3000815012968C9382E00E945701F12C8823FA
:100A4000A1F0F8018381F12C882311F0F080FA9451
:100A5000D80112968C91129793012F1931098217A0
:100A600013061CF48F5F12968C9381E00E9457014D
:100A70008823A1F0F8018381811102C0F080FA94EB
:100A8000D80111968C91119724E030E02F1931098B
:100A9000821713061CF48F5F11968C9383E00E94DB
:100AA0005701882331F0F8018181882311F08150AA
:100AB000818380E00E94AF06582E882309F45FC02E
:100AC000D8011396FC9013974C9130E020E0FF2062
:100AD000D9F15F2C30E020E019C08150D801129686
:100AE0008C938BCFF8018181E28190E067E070E028
:100AF0000E94FE078A0D9B1D820F931FE80FF92F9E
:100B0000F11D80818111512C2F5F3F4F241750F32D
:100B10005520A9F130E020E030C0D80111968C9129
:100B200011971296EC91820F932F911D67E070E060
:100B30000E94FE078A0D9B1DE80FF92FF11D808191
:100B40008111512C2F5F3F4F241738F3E1CFF8016B
:100B5000818190E0E281AE2FB0E0FF2031F167E0CB
:100B600070E00E94FE07F501E80FF91FE20FF31F86
:100B7000EA0FFB1F30822F5F3F4F241740F30E9484
:100B8000B3007601D70113968C91412C81111FC0BF
:100B9000D7018C914816F8F4F701818141E0628118
:100BA000840D0E9475004394F3CF820F931F67E07A
:100BB00070E00E94FE07F501E80FF91FD9CFF70199
:100BC0006281640D41E081810E9475004394D701E8
:100BD0008C914816A0F3B8E0EB0EF11CE814F90470
:100BE00089F60E949F00552009F4F8CE085F1F4F38
:100BF0000E151F0509F0F2CEA3960FB6F894DEBFCE
:100C00000FBECDBFDF91CF911F910F91FF90EF905D
:100C1000DF90CF90BF90AF909F908F907F906F901C
:100C20005F904F903F90089590E080E0089510927B
:100C3000800084E0809381001092850010928400EF
:100C4000089580918400909185000895AC01809171
:100C50008400909185009C01241B350B283E334075
:100C6000B0F708952091840030918500820F931F82
:100C70000C942606CF93DF931F92CDB7DEB79E016B
:100C80002F5F3F4F45E067E571E00E948E0791E0DE
:100C9000980F909331019981915097BD18BC95B5EB
:100CA000977039F095B5209131012770987F922B7C
:100CB00095BD298130E0E82FF0E0E95AFE4FC901E7
:100CC000008002C0880F991F0A94E2F70F90DF910D
:100CD000CF91089585B3897F85BB85B5909131010A
:100CE0009770887F892B85BD089585B5887F85BDE0
:100CF000089585B382FB882780F90895009719F03D
:100D0000019741F0089584B58F736295660F660F61
:100D1000607C05C084B563706295607F8F7C682BB2
:100D200064BD0895009741F0019759F484B58E7F12
:100D300084BD84B5826002C084B58C7F84BD81E0AF
:100D4000089580E0089514BC15BC16BC18BC84B589
:100D50008E7F84BD84B5826084BD81E00895811159
:100D60000DC080917301882329F09091740181E076
:100D7000892702C080E090E08170089580E00895A6
:100D800081110BC080917301811103C080917401A6
:100D900002C080E090E08170089580E008958111A4
:100DA00003C080917301089580E00895811105C00A
:100DB0009091730181E08927089580E00895E3E729
:100DC000F1E08081818389B1881F8827881F808313
:100DD000089557985F9808959C01215031093093E8
:100DE000CD0081508093CC000895CF93DF93EC0128
:100DF000888199810E94EC068A819BEF980F94303C
:100E000008F088E098E19093C9008550880F80939E
:100E1000CA0081E0DF91CF9108958091C800881FBA
:100E20008827881F08958091C80085FB882780F94E
:100E300008958091C80086FB882780F90895CF9394
:100E4000C82F0E9413078823E1F38091C8008064B3
:100E50008093C800C093CE00CF9108958091C800C0
:100E600087FFFCCF8091CE000895CF93DF93EC01F4
:100E70008991882319F00E941F07FACFDF91CF9143
:100E80000895009789F0FC012381621B67FD09C06A
:100E9000062E000C770B248130E081E06217730787
:100EA0000CF080E08170089580E00895CF93DF9387
:100EB000FC01892B79F18181481760F5928129170E
:100EC00048F59381A62FA91BA7FD24C00A2E000C6C
:100ED000BB0BC481D0E0AC17BD07E4F4622F0E94C5
:100EE000F507480F858190E0BD010E94FE07069638
:100EF000242F269526952695E80FF91FE20FF11D60
:100F0000808190E0477002C0959587954A95E2F7F9
:100F1000817001C080E0DF91CF910895CF93DF937E
:100F2000DC01FB0160E070E080E0C1E0D0E084170C
:100F3000C9F09191BE01092E02C0660F771F0A9475
:100F4000E2F76F5F7F4F769567956A0F7B1F02C050
:100F5000769567959A95E2F76F3F710519F010F055
:100F60008F5FE5CFF9016083DF91CF91089500D0C5
:100F7000CDB7DEB70E9459000E9414069A83898378
:100F8000CE0101960E94C2040E94B30010E000E06E
:100F9000E981FA81E00FF11F8381F12C811116C0E4
:100FA000E981FA81E00FF11F8081F816B0F48181A8
:100FB00041E062818F0D0E947500F394F1CF628150
:100FC0006F0D41E081810E947500F394E981FA81FF
:100FD000E00FF11F8081F81690F3085F1F4F003279
:100FE0001105B1F60E949F00FDCF002480FD060E82
:100FF000660F11F08695D1F7802D089500245527AE
:1010000004C0080E591F880F991F009729F0769584
:101010006795B8F37105B9F7802D952F0895AA1B30
:10102000BB1B51E107C0AA1FBB1FA617B70710F0D3
:10103000A61BB70B881F991F5A95A9F78095909505
:10104000BC01CD010895052E97FB1EF400940E946B
:101050003A0857FD07D00E94420807FC03D04EF41F
:101060000C943A0850954095309521953F4F4F4F3D
:101070005F4F089590958095709561957F4F8F4F44
:101080009F4F0895A1E21A2EAA1BBB1BFD010DC0A4
:10109000AA1FBB1FEE1FFF1FA217B307E407F50728
:1010A00020F0A21BB30BE40BF50B661F771F881F04
:1010B000991F1A9469F760957095809590959B019A
:1010C000AC01BD01CF010895FB01DC01415050404E
:1010D00048F001900D920020C9F701C01D924150C7
:0A10E0005040E0F70895F894FFCFA8
:1010EA0000000000000014000000000000000000E2
:1010FA0000000000000000000000000000000000E6
:10110A0000000000000000000000000000000000D5
:10111A0000010340008003100380032000400020E8
:10112A0000100008000400020001038003400320AD
:0C113A0000800310D00008000306080A23
:00000001FF
